S012000053544B333730305F6C63642E73333794
S1130000000002200D030000390300003903000042
S113001039030000390300003903000039030000EC
S113002039030000390300003903000039030000DC
S1130030390300003803000039030000B908000048
S113004039030000390300003903000039030000BC
S113005039030000390300003903000039030000AC
S1130060390300003903000039030000390300009C
S113007039030000390300007D0800003903000043
S1130080390300003903000039030000390300007C
S1130090390300003903000039030000390300006C
S11300A0750A000039030000390300003903000019
S11300B0390300003903000039030000390300004C
S11300C0390300003903000039030000390300003C
S11300D039030000390300003903000010B5054C52
S11300E0237833B9044B13B10448AFF300800123E0
S11300F0237010BD7800002000000000443300008D
S113010008B5034B1BB103490348AFF3008008BD96
S1130110000000007C00002044330000A3F5803A76
S1130120704700BF174B002B08BF134B9D46FFF7CA
S1130130F5FF00218B460F461348144A121A02F0A9
S113014083F90E4B002B00D098470D4B002B00D0A9
S113015098470020002104000D000D48002802D01B
S11301600C48AFF3008002F04BF92000290000F0A6
S1130170ABFB02F031F900BF0000080000000000F2
S1130180000000000000022078000020C8000020C9
S1130190000000000000000008B501210A4801F039
S11301A053F90121094801F04FF9042200231046B4
S11301B0022101F085FC042200231046032101F0F2
S11301C07FFC002008BD00BF4081040000D2040071
S11301D0012821D838B5134B13F8304003EBC00085
S11301E0042C456810D84FF6FF72EA40D3070DD5AA
S11301F0012304EBC404A40004F1804404F5C044C6
S1130200AB400020236138BD052C08D040F22B41BF
S1130210054800F073FDEBE74FF0FF30704741F6FF
S1130220FF72E2E7F42C0000A42C000010202D4AF9
S1130230F8B5516C2C4B41F400515164D3F82011A2
S113024041F00401C3F82011D3F8201121F44071C6
S1130250C3F82011D3F8B81021F47061C3F8B810B2
S1130260D3F8B81041F48061C3F8B8101062D36AAF
S11302709B06FCD51D4B1E49D3F8F0201D4C42F0C3
S11302800102C3F8F020D3F8FC201B4842F080722E
S1130290C3F8FC200C6001F00BFA03464FF06042F7
S11302A002274FF48076012003F5D523DFF84CC0F4
S11302B003F2FC43DB08ACFB03C31149114D124CA0
S11302C09B0A013B0B61C1F8F070C1F80463C2F8EA
S11302D0B05FC2F8804ED2F8003E0343C2F8003E3D
S11302E0F8BD00BF00800C400060004000ED00E05D
S11302F0001000E0FF13014006000E001791650294
S1130300000004E055CEACC5090001000648804752
S11303100649074A074B9A42BEBF51F8040B42F8FC
S1130320040BF8E7FFF7FEFE410400005033000021
S11303300000002078000020FEE700BF004870475E
S1130340006CDC02274AD36A03F47053B3F5805F70
S11303502FD0B3F5005F32D0B3F5006F2CD0D36843
S113036003F4E063B3F5407F3AD007D8B3F5807F58
S11303702CD0B3F5007F11D11B4807E0B3F5806F93
S113038020D0B3F5A06F194818BF0020154B1B6887
S1130390C3F382330133B0FBF3F07047A3B9144BBA
S11303A01448D3F8FC20144BB2F1985F38BF1846B8
S11303B0ECE74FF40040E9E7104B1868E6E7104B10
S11303C01868E3E70F48E1E70020DFE7084B0E4831
S11303D0D3F8FC200D4BB2F1985F38BF1846D5E72F
S11303E00B48D3E700800C40C0D8A700003FAB0106
S11303F00081E00F804F120040420F0004000020F3
S113040008000020406F400140B56400C0CF6A007E
S1130410809FD50008B5FFF795FF044B044A5B683D
S113042003F00F03D840106008BD00BF00800C40EB
S113043000000020014B1868704700BF0400002032
S1130440014A024B9A6070470000000000ED00E092
S11304504FF40040704700BF4FF47A70704700BFFC
S1130460014B1868704700BF080000200020704747
S1130470FEE700BF4FF4005300204B60704700BFFD
S11304800020704770B57AB10D461646002404E08A
S11304900134A64205F8010B04D000F089FB431C8B
S11304A0F6D10CB1204670BD4FF0FF34FAE700BF1F
S11304B070B5161E07DD0C468D1914F8010B00F0FB
S11304C0B3FBA542F9D1304670BD00BF002210B580
S11304D0284C1046214601F025FD2146002201202A
S11304E001F020FD21460022022001F01BFD2146DF
S11304F00022032001F016FD21460022042001F011
S113050011FD21460022052001F00CFD21460022A8
S1130510062001F007FD21460022072001F002FD1C
S11305200022FF21104601F061FD0022FF2101207D
S113053001F05CFD0022FF21022001F057FD0022A2
S1130540FF21032001F052FD0022FF21042001F0CD
S11305504DFD0022FF21052001F048FD0022FF216E
S1130560062001F043FDBDE810400022FF210720D2
S113057001F03CBD00F00FF010B5274C002207201D
S1130580264901F0CFFC21460022062001F0CAFCD6
S113059021460022052001F0C5FC2146002204204A
S11305A001F0C0FC21460022032001F0BBFC2146DF
S11305B00022022001F0B6FC21460022012001F0B5
S11305C0B1FC00224FF02041104601F0ABFC0721A2
S11305D00022084601F00AFD00220721062001F04E
S11305E005FD00220721052001F000FD002207215E
S11305F0042001F0FBFC00220721032001F0F6FC9B
S113060000220721022001F0F1FCBDE81040002285
S11306100721012001F0EABC00E00FF000E00F50D8
S113062010B501210446224800F00EFF03212148A1
S113063001F00EF94021204800F03EFD012001F0B8
S11306401DFA01211D4800F0FFFE00221C4B1D482D
S1130650996A9A6201F00EFB0121082001F042FB25
S11306600121102001F03EFB0121802001F03AFB22
S113067001214FF4807001F035FB01214FF400702B
S113068001F030FB34B9FFF721FF0D4A536E002B04
S1130690FCD110BD4FF4402001F00CFD4FF480302C
S11306A001F012FB084AD36F43F00803D367EAE76B
S11306B0D0433E0002001E0080002A0000362C00B9
S11306C000A00840E02F000000800C4008B5002284
S11306D07821012001F08AFC00227821022001F017
S11306E085FC00227821032001F080FC002278217F
S11306F0042001F07BFC00227821052001F076FC27
S113070000227821062001F071FCBDE80840002297
S11307107821072001F06ABC42F20E732DE9F04FF4
S1130720984283B008DC10F57A7F814650DC40F2B1
S1130730E7390123019303E0002342F20F79019387
S1130740274B5E6E002EFCD101271F66FFF7BEFF0C
S113075007202321DFF88C80DFF88CB0B9FBF7F495
S1130760ABFB0432019BD20802EB8202A4EB4202EF
S11307701BBB1E4B33F812A04546002404E0072C93
S11307800ED0E97915F8010B4AFA04F313F0010FBE
S113079004F10104F3D0012201F0B2FA072CF0D1E4
S11307A00136042E08F10E080CD007EB870798F8E1
S11307B0061018F8010C7F00D0E7032ED9D14FF0B2
S11307C0400AD9E70022064B1A6603B0BDE8F08F51
S11307D0002802DAC0F10009ABE700230193AFE778
S11307E000A00840C92D0000CDCCCCCCBC2F00000B
S11307F02DE9F84F814601F0F5FE80461C4B5E6EF4
S1130800002EFCD101241C66FFF7B6FE20460D2104
S1130810184FDFF864A0B045CABF19F806304FF08E
S1130820000B203B3D464FF00004C8BF3AF813B01C
S113083004E00E2C0ED0A97B15F8010B4BFA04F33F
S113084013F0010F04F10104F3D0012201F058FA6E
S11308500E2CF0D10136072E07F11C0703D0797B4B
S113086017F8010CD7E70022014B1A66BDE8F88F90
S113087000A00840052D0000042F000001220C4BAD
S113088010B59A615C6DD969A14202D80022DA657B
S113089010BD0A34B4F5803F02D2054BDC6510BDAF
S11308A040F2FA21034800F029FA014BDC65F6E72F
S11308B0000C0140F42F0000024A13680133136056
S11308C0704700BF980000200121F0B55E4A5F4BDD
S11308D01164D3F8FC40A9B008A801F0A1FCB4F15C
S11308E0805F04D39DF82030022B00F29580FFF73F
S11308F09DFCFFF751FC0020FFF76AFC544800F010
S1130900D7FE544AA2FB00329209013AB2F1807F29
S113091075D2012100244FF0E0234FF0E00E0727A9
S11309200E46DFF834C15A614C488CF823E09C61D0
S11309301F6100F089FD3146494800F085FD04221D
S113094023461046022101F0BBF802210323454D42
S113095001AA2846CDE9024401948DF80A308DF8A5
S113096005108DF806108DF8096001F0EBFCAB6AF8
S11309703B4843F4803343F00403AB62EC65CDE9B8
S1130980044406948DF810608DF811608DF81C40B5
S11309908DF8127000F08CFE64269DF8123020FA57
S11309A003F3B3F5C80FB3FBF6F643D24FF480421A
S11309B000242C4D04A9EE61EB68284643F00103A2
S11309C0EB60294B26461A6001F052FC2046FFF7E3
S11309D027FE00F083F8204600F078F8686DFFF7F2
S11309E09BFE00F0E5F8431CF8D028AB0D28234407
S11309F006D00A28F2D003F8800C0134EEE7FEE7B3
S1130A0028AB1C4408A804F8806CFFF7F1FE08A882
S1130A1000F038F90024E1E79DF82120022A0FD0E4
S1130A20124AD2F8C03023F0500343F01003C2F846
S1130A30C0305CE740F289410D4800F05FF9B5E74A
S1130A40042BEDD153E700BF00000C400081E00F00
S1130A5070000200D34D621000ED00E000D20400EB
S1130A6000820400000C014000E100E000800C4022
S1130A70F42F0000104838B5C36A5B0700D438BDB2
S1130A800E4C256801F0BAFB0D4A0E4B50552268F6
S1130A90013222601A6801321A602268082A04BFEF
S1130AA0002222601A68082AE9DD00220649226031
S1130AB01A600A6038BD00BF00400840B000002042
S1130AC0A0000020A8000020AC000020003818BFBF
S1130AD00120014B187070479C000020F0B50121E3
S1130AE085B02A4800F0B0FC042200266D46114669
S1130AF00123032000F0E4FF3346012205210320F3
S1130B0000F0DEFF012304220721052000F0D8FFB6
S1130B101F4B204F0FCB85E80F0001211E4800F02A
S1130B2093FC06211D4800F093FE3846012100F095
S1130B308BFC3846012100F0BFFA4FF4E133184C26
S1130B40294620464FF08075029303278DF80060F4
S1130B5001F020FB0423134A67656363C2F88051E4
S1130B60A36B204643F00403A3630521156001F041
S1130B70EFFA0D4A3346106831460222806801F0CC
S1130B806BFC0122094B1A7005B0F0BD00D20400C1
S1130B904430000090071A00D0433E0003002000B8
S1130BA00040084000E100E00C0000209D0000200F
S1130BB038B5184B1B783BB372B6174D174C2B68DE
S1130BC05A1C19D022680133002A2B601FDD144AF5
S1130BD014481168405C1168C0B201311160116899
S1130BE0082904BF002111602268013A2260013BF8
S1130BF02B6003B962B638BD2268002AE7DC6FF0C7
S1130C00010218462A6038BDFFF768FFD4E74FF0A9
S1130C10FF30ECE79D00002094000020A800002095
S1130C20AC000020A000002038B5134B04461B780C
S1130C3073B1124D2B780BB10A2C12D021461048F7
S1130C4001F0E2FA2B780BB10D2C04D0204638BD0C
S1130C50FFF744FFEDE70A21094801F0D5FA2046E1
S1130C6038BD0D21064801F0CFFA2146044801F0B1
S1130C70CBFA204638BD00BF9D0000209C00002018
S1130C80004008402DE9F843002506462C46DFF8CD
S1130C906090184FDFF860800CE03B780BB10A2DB0
S1130CA01DD02946404601F0AFFA3B780BB10D2D1B
S1130CB010D00134304601F095FCA04207D999F8D0
S1130CC00030355D002BE8D1FFF708FFE5E7284643
S1130CD0BDE8F8830A21404601F096FAE9E7404668
S1130CE00D2101F091FA2946404601F08DFAE0E722
S1130CF09D0000209C00002000400840FEE700BF4B
S1130D0008B51C4B5B6903F4E063B3F5407F26D060
S1130D1012D8B3F5807F19D0B3F5007F09D1164BF3
S1130D201648D3F8FC20164BB2F1985F38BF18462A
S1130D3008BD6BB9134808BDB3F5C06F04D0B3F553
S1130D40E06F05D1104808BD104808BD104808BD23
S1130D504FF49E510F48FFF7D1FF002008BD064B0A
S1130D600D48D3F8FC200D4BB2F1985F38BF1846FC
S1130D7008BD00BF00800C400081E00F40B5640056
S1130D80C0CF6A00809FD500406F4001003FAB0197
S1130D90C0D8A70054300000804F120040420F001A
S1130DA008B5154BD3F8FC30C3F307434A2B0CD0DA
S1130DB0792B0AD0482B06D041F23C310F48FFF77B
S1130DC09DFF002008BD0E4808BD0E490E48D1F80D
S1130DD0E030D1F8E820D1F8EC101B02C1F3031184
S1130DE003F47C530B4302F0F00205491343B3F5BB
S1130DF0017F38BF084608BD0081E00F5430000071
S1130E000048E80100FF0FE000366E0138B541F6F6
S1130E107133184CE56BE363FFF790FA636813F0E2
S1130E20060F04D1144B98421BD904220DE003F0A1
S1130E300702042AF6D0104B984210D80F4B104AE0
S1130E40034493422CBF022203220A494B6823F035
S1130E50070313434B600DB10023CB6338BD052258
S1130E60F3E7064B064A034493422CBF00220122B7
S1130E70EBE700BF00000C400048E801FFDB0BFF7C
S1130E800024F40038B5224B0446D3F8FC30C3F3F5
S1130E9007434A2B25D0792B23D0482B12D041F27B
S1130EA03C311C48FFF72AFF002294420DD8002150
S1130EB00D46194B194A9D67536823F480730B43FD
S1130EC0536038BD164A9442F1D9FFF769FFB4EB79
S1130ED0400F4FF0010594BF4FF480714FF400713F
S1130EE0E7E7104A0E48D2F8E030D2F8E810D2F81A
S1130EF0EC201B02C2F3031203F47C53134301F0EE
S1130F00F001094A0B43B3F5017F38BF0246CCE731
S1130F100081E00F543000000000904300800C403A
S1130F200048E80100FF0FE000366E0141F671321F
S1130F30174B10B4DC6BDA635B6813F0060F04D153
S1130F40144B98421CD904220DE003F00702042A32
S1130F50F6D0104B984211D80F4B104A03449342D9
S1130F602CBF022203220A494B6823F007031343D0
S1130F704B600CB10023CB6310BC70470522F2E731
S1130F80054B064A034493422CBF00220122EAE7A0
S1130F9000000C400048E801FFDB0BFF0024F400D4
S1130FA008B5C0F30313013B0C2B08D8DFE803F0AA
S1130FB00E07071407071B2234070707420041F6F0
S1130FC074113748FFF79AFE012008BD354B1868A5
S1130FD0C0F38230013008BD0120324B9B6803F01E
S1130FE00F03984008BD01202E4B5B6803F00F03EC
S1130FF0984008BD2C4B98424AD023D82B4B98429A
S113100038D003F5822398423BD10120254B9B6EB7
S1131010C3F30323984008BD254B98421CD003F525
S1131020043398421FD041F66D111D48FFF766FE48
S1131030012008BD01201B4B5B68C3F3002303445C
S1131040984008BD1B4B98421BD10120154B9B6E49
S113105003F00303984008BD0120124B1B6F03F0FB
S11310600303984008BD01200E4B1B6FC3F301130B
S1131070984008BD01200B4B9B6EC3F303139840AB
S113108008BD41F654110648FFF738FE012008BD9B
S11310900120044B9B6EC3F301330433984008BD15
S11310A05430000000800C4080002A00801612009A
S11310B090071A0080062E0038B5C0F30313013BD5
S11310C00C460C2B08D8DFE803F00E0707220707AD
S11310D032527B070707890041F64F21BDE83840AB
S11310E0B248FFF70BBE4C1E072C00F21581FFF728
S11310F08DFEAF4A136823F4E03343EA843414606A
S1131100FFF788F9BDE838400021FFF70FBF4D1EF7
S1131110B5F5007F80F0F180B4FA84F4A44AC4F1F8
S11311201F04936823F00F031C43946038BD4D1EC5
S1131130B5F5007F80F0CA80FFF768FEFFF76AF913
S1131140B0FBF4F0FFF79EFEB4FA84F4984AC4F1BD
S11311501F04536823F00F031C435460FFF75AF92C
S11311600021FFF7E3FEBDE83840FFF78BBE914B4B
S1131170984200F0DD8042D88F4B984200F0FA800C
S113118003F58223984240F0EE80B1F5004F59D820
S1131190874B5B6DDA0703D4854A136D5B07FCD478
S11311A0631EB3F5004F56D2B4FA84F4804AC4F1F6
S11311B01F04936E23F4706343EA0423936638BDDB
S11311C07E4B98424DD003F50433984263D0BDE87A
S11311D0384041F649217548FFF790BD4B1EB3F5E1
S11311E0004F80F09F80B4FA84F4714AC4F11E0465
S11311F0536823F4807343EA0424546038BD704B6D
S1131200984240F0B080082916D8694A536DD9072E
S113121002D4136D5B07FCD4631EB3F5004F80F05A
S1131220F780B4FA84F4624AC4F11F04936E23F085
S113123003032343936638BD41F615215B48FFF74A
S11312405DFDE2E741F6F6115848FFF757FD584BAC
S11312505B6DD907A0D540F624515A48FFF74EFDDF
S1131260A2E7082900F2C280514A536DDD0702D477
S1131270136D5806FCD4631EB3F5004F80F0A480B0
S1131280B4FA84F44A4AC4F11F04136F23F003032D
S11312902343136738BD082900F2A280444A536DE2
S11312A0D90702D4136D5B06FCD4631EB3F5004F5B
S11312B080F09080B4FA84F43D4AC4F11F04136FA3
S11312C023F0300343EA0413136738BD41F6CA110F
S11312D03648FFF713FDFFF799FDFFF79BF8B0FBC6
S11312E0F4F0FFF7CFFDB5F5004FFFF42DAF40F656
S11312F024513448FFF702FD26E741F6B4112B4888
S1131300FFF7FCFCB5F5004FFFF406AF40F624519F
S11313102C48FFF7F3FCFFE641F6A1112348FFF741
S1131320EDFCE4E640F624512648FFF7E7FC5AE7D3
S1131330A1F11003702B65D81D4A536DDD0702D44B
S1131340136D5807FCD4631EB3F5004F54D2B4FA9E
S113135084F4174AC4F11B04936E23F4405343EA04
S11313600433936638BD41F62321BDE838400F4865
S1131370FFF7C4BCB1F5004F50D80D4B5B6DDD07D2
S113138003D40B4A136D5807FCD4631EB3F5004F06
S11313904DD2B4FA84F4064AC4F11F04936E23F0C8
S11313A0F00343EA0413936638BD00BF54300000D1
S11313B000800C4080002A008016120090071A005A
S11313C080062E00A430000040F624511B48FFF78D
S11313D095FC55E740F624511848FFF78FFC69E760
S11313E041F63B211648FFF789FC57E741F62C21CB
S11313F01348FFF783FC37E740F624510F48FFF703
S11314007DFCA4E741F605210D48FFF777FC93E73F
S113141040F624510948FFF771FC02E741F6E81150
S11314200748FFF76BFC074B5B6DDB07A9D540F65C
S113143024510248FFF762FCABE700BFA430000070
S11314405430000000800C4038B5C0F30323013B46
S113145004460D46092B06D8DFE803F00C131A05E1
S113146005253405053941F6D521BDE838401B482A
S1131470FFF744BC1A48C4F304340444A4002560B0
S113148038BD1848C4F304340444A400256038BDAE
S1131490FEF7C0FFFFF7F6FC1348C4F3043404441A
S11314A0A400256038BD01211048C4F30434104A57
S11314B0536DDB07E1D4136D0B42FCD10444A4004B
S11314C0256038BD10210B48C4F30434EFE70A4803
S11314D0C4F304340444A400256038BD543000002F
S11314E04000E4102002E4100002E410C002E41002
S11314F000800C400003E410C003E41000F00F006F
S1131500013808B5062815D8DFE800F01B2B351480
S1131510144604002B4BDB6A03F46033B3F5803FBD
S113152044D0B3F5003F3FD0B3F5004F14BF0120C2
S1131530092008BD42F225012348FFF7DFFB002004
S113154008BD204BDB6A03F47053B3F5805F2BD0E6
S1131550B3F5005F2AD0B3F5006F14BF0520042053
S113156008BD184A936A03F00303013B022B1FD8FA
S1131570164AD05C08BD134A936A03F00C03082B87
S113158014D00C2B1BD0042B0ED0936A13F4801FA1
S11315900CBF01200A2008BD0A4B1B6813F0805FB2
S11315A00CBF0720092008BD032008BD022008BD88
S11315B0936A13F4803F0CBF01200A2008BD062063
S11315C008BD00BF00800C4054300000F43000001F
S11315D0324B10B598423BD0314B044698421BD154
S11315E0FFF78CFF2F4B9B6AC3F38103013B022B54
S11315F050D8DFE803F006020A00BDE81040FEF709
S11316002FBFBDE81040FEF723BFFEF703FF264BB4
S11316109B6F0133D84010BD41F238612348FFF776
S11316206DFB2046FFF76AFF044641F267611F48DD
S1131630FFF764FB032C1DD801A353F824F000BF6B
S11316407F16000003160000FB1500000B160000B7
S1131650FFF754FF134B9B6A03F00303013B022B78
S11316600FD801A252F823F003160000FB15000066
S11316700B16000041F292610C48FFF73FFB00207B
S113168010BD1022074B9B6AD340F8D0BDE8104030
S1131690FEF7E2BE034B14229B6AF5E702001E002C
S11316A00300200000800C400000904354300000F0
S11316B000F47813B3F5E01F10B57FD02ED8B3F53E
S11316C0801F77D01BD9B3F5B01F00F09D80B3F510
S11316D0D01F08D15A48FFF77BFF5A4B1B6F03F00A
S11316E00303D84010BDB3F5901F70D15648FFF7DF
S11316F06FFF544B9B6EC3F30313D84010BDB3F577
S1131700802F6BD01FD9B3F5602F60D14D4B1B6870
S1131710DB004FD5BDE81040FEF714BEB3F5281F1B
S11317207BD02BD9B3F5381F60D0B3F5781F13D114
S11317300446FEF76FFE034620461C46FFF730FCC6
S1131740B4FBF0F010BD002BE4D0B3F5003F3ED164
S1131750BDE81040FEF75EBEB3F5301F37D13A48FE
S1131760FFF736FF374B9A6EDB6FC2F3013203F09B
S113177007030133D040B0FBF3F010BDB3F5001FF5
S11317803DD0B3F5181F0DD12E4BDB6A03F4603343
S1131790B3F5803F4BD0B3F5003F4CD0B3F5004FC9
S11317A01AD1B7E7B3F5F01F11D1BDE810402648B0
S11317B0FFF70EBFBDE81040FFF7A2BA2048FFF7BD
S11317C007FF204B1B6FC3F30113D84010BD41F634
S11317D005411E48FFF792FA002010BDFEF7B2FD46
S11317E0184B9B6803F00F03D84010BD1648FFF751
S11317F0EFFE144B9B6E03F00303D84010BD10485A
S1131800BDE81040FFF7E4BE0F48FFF7E1FE0D4BC3
S11318109B6EC3F30323D84010BD0B48FFF7D8FEDB
S1131820084B9B6EC3F301330433D84010BDBDE8AD
S11318301040FEF715BEBDE81040FEF709BE00BF1C
S11318400300200000800C4002001E005430000001
S113185010B500F00F04631E062B1ED8DFE803F05A
S11318601304041D1D3124000139092966D8DFE859
S113187011F0E400B500CE0065006500D9006500F4
S113188065006500E700023908295ED8DFE801F049
S11318909DA26B955D5D5D5D640042F22431BDE8FF
S11318A010406E48FFF72ABA032938D009291FD0FF
S11318B0022924D0BDE8104042F22E216748FFF7E8
S11318C01DBA07290ED0092906D0BDE8104042F2FE
S11318D0EF116248FFF712BA614A136843F080536C
S11318E0136010BD5E4A136823F08053136010BD6B
S11318F020235B4A5362D36A1B04FCD510BD4FF40A
S11319008071574B574A1962D2F8A435002BFBD08B
S11319104023534A5362D36AD803FCD510BD4021F7
S11319204F4B504A1962D2F89C35002BFBD06023F0
S11319304B4A5362D36A9903FCD510BD42F2941109
S1131940BDE810404548FFF7D9B942F2EB01BDE8C4
S113195010404248FFF7D2B942F2E601BDE8104018
S11319603E48FFF7CBB9FFF71BFA0130FFF78AFABD
S1131970FEF760FD022404213B4B3C4A9842384860
S1131980036896BF23F0600343F0600343F0200331
S11319900360334B19621368002BFCD0FFF736FA4F
S11319A02F4B5C62FEF736FD0446FFF76BFA2046C8
S11319B0BDE810400021FFF7B9BAFFF7F1F9013093
S11319C0FFF760FA21462A4AE3E74FF480710424C2
S11319D0284ADEE740210324274ADAE74FF48071DE
S11319E01F4B204A1962D2F8A435002BFBD00023E8
S11319F00220022C1A4926D08A6A1B0522F480127E
S1131A0043EA800322F00C0213438B6210BD402191
S1131A10134B144A1962D2F89C35002BFBD00023D7
S1131A200120E6E7FEF7F6FCFFF72CFA01210D4A48
S1131A3000230320C2F81018DBE700231846D8E778
S1131A4001230020D5E78A6A22F4803222F00302BF
S1131A50024342EA03438B6210BD00BF54300000CE
S1131A6000800C40000090430048E8018C0590433E
S1131A7084059043A40590439C059043802810B5A9
S1131A8004460BD8084B9A6D120706D4D86F04F09D
S1131A90070420F007000443DC6710BD42F2AF6185
S1131AA00248FFF72BF9EDE700800C4054300000AA
S1131AB0EFF3108072B6704700B962B6704700BF8A
S1131AC004282DE9F04704460D46174698463AD9AE
S1131AD0052800F0C3804FF4B0716248FFF70EF997
S1131AE0C7BBE600072D4DD8DFF87C9133199B0066
S1131AF09944FFF7DDFF0F23D9F800104FEA850C56
S1131B0007FA0CF24A4003FA0CF313404B40C9F8AD
S1131B100030FFF7D1FFA7B9B8F1000F5FD0042C54
S1131B2000F297804FF6FF73EB40DA0776D5012178
S1131B303444A40004F1804404F5C04401FA05F5DA
S1131B402561BDE8F0874FF6FF73EB40DE07C2D591
S1131B50002FC6D0B8F1000F2ED0042C6FD84FF64A
S1131B60FF73EB40D80753D5012204EBC4039B0059
S1131B7003F1804303F5C043AA40072D4FEAC4068E
S1131B801A61B1D93319DFF8E4909B009944A5F1A7
S1131B9008034FEA830AFFF78BFF0F23D9F80010DD
S1131BA007FA0AF24A4003FA0AF313404B40C9F811
S1131BB00030FFF781FFAEE7042C3BD84FF6FF73EC
S1131BC0EB40D90730D5012204EBC4039B0003F199
S1131BD0804303F5C043AA40E6005A6182E7042C1F
S1131BE032D84FF6FF73EB40DB070BD501213444A9
S1131BF0A40004F1804404F5C04401FA05F56561CC
S1131C00BDE8F0874FF47F711948FFF777F8EDE7E7
S1131C1040F22B411648FFF771F8A5E740F22B413B
S1131C201348FFF76BF882E74FF47F711048FFF712
S1131C3065F8C8E7052CF7D141F6FF73C0E7052C1A
S1131C40E6D141F6FF738CE7052CDBD141F6FF7337
S1131C50C9E7052CE2D141F6FF7365E741F6FF734E
S1131C6073E700BFF83000000460004008600040E3
S1131C70A42C000038B5124B04465D68D8B1104955
S1131C806368086825F4830220F001000860E068B6
S1131C9022F01F020343207A13430343607A228A0B
S1131CA00343207813434B6000B938BD0B6843F0FD
S1131CB001030B6038BD46210248FFF71FF8DEE739
S1131CC000A0084048310000054B054A5B68B0F5A8
S1131CD0803F23F4803308BF43F48033536070475C
S1131CE000A0084021B1054B9A68104398607047E2
S1131CF0024A936823EA00009060704700A00840FD
S1131D00072870B50C4618DC27290546164607DC5B
S1131D1007281ED8DFE800F05E2D363E464E5624D6
S1131D204FF4CE716E48FEF7E9FF072D11D8DFE8B6
S1131D3005F08A2029313941491740F29511684844
S1131D40FEF7DCFF272C04DD4FF4CE716448FEF768
S1131D50D5FFBDE8704040F206216148FEF7CEBFD2
S1131D601F2C4DDC00F294805E4B23449B001E60CC
S1131D7070BD1F2C59DC00F286805B4B23449B0012
S1131D801E6070BD1F2C57DC78D8584B23449B0031
S1131D901E6070BD1F2C41DC57D8554B23449B005B
S1131DA01E6070BD1F2C24DC63D8524B23449B005F
S1131DB01E6070BD1F2C2ADC51D84F4B23449B005E
S1131DC01E6070BD1F2C0DDC44D84C4B23449B007B
S1131DD01E6070BD1F29E0DC46D8494B23449B009C
S1131DE01E6070BD3F2C76DC464B23449B001E6076
S1131DF070BD3F2C6ADC444B23449B001E6070BDC5
S1131E003F2C5EDC414B23449B001E6070BD3F2C85
S1131E1052DC3F4B23449B001E6070BD3F2C46DCCC
S1131E203C4B23449B001E6070BD3F2C3ADC3A4B74
S1131E3023449B001E6070BD3F2C2EDC374B234493
S1131E409B001E6070BD3F2CA7DD91213448FEF736
S1131E5055FFA2E791213248FEF750FFB5E79121E3
S1131E602F48FEF74BFFA8E791212D48FEF746FFC8
S1131E70B3E791212A48FEF741FF96E791212848CC
S1131E80FEF73CFF81E791212548FEF737FF74E711
S1131E9091212348FEF732FF66E791212048FEF79F
S1131EA02DFFCBE791211E48FEF728FFBFE79121C4
S1131EB01B48FEF723FFB3E791211948FEF71EFFE5
S1131EC0A7E791211648FEF719FF9BE791211448D3
S1131ED0FEF714FF8FE791211148FEF70FFF83E708
S1131EE048310000C006C5102002C5104002C510CC
S1131EF06002C5106006C5108006C510A006C51096
S1131F000002C510C005C5108005C510E005C51048
S1131F10A005C510C002C5108002C510A002C510DE
S1131F2098310000072810B507DC07280AD8DFE835
S1131F3000F01A222A323A444E104FF41371294801
S1131F40FEF7DCFEBDE810404FF423712548FEF790
S1131F50D5BE2548D0F8D840624002EA0103634068
S1131F60C0F8D83010BD2048046C624002EA010376
S1131F706340036410BD1C48446C624002EA0103E0
S1131F806340436410BD1848846C624002EA010354
S1131F906340836410BD1448C46C624002EA0103C8
S1131FA06340C36410BD1048D0F8CC40624002EADC
S1131FB001036340C0F8CC3010BD0B48D0F8D040CA
S1131FC0624002EA01036340C0F8D03010BD064805
S1131FD0D0F8D440624002EA01036340C0F8D43030
S1131FE010BD00BF4831000000A00840072813DCE2
S1131FF010B407280ED8DFE800F0141D262F38434C
S11320004E042A48D0F8C040624002EA010363400B
S1132010C0F8C03010BC704740F2A5212448FEF738
S11320206DBE2248046D624002EA01036340036509
S113203010BC70471D48446D624002EA01036340CE
S1132040436510BC70471948846D624002EA01037D
S11320506340836510BC70471448C46D624002EA53
S113206001036340C36510BC70471048D0F8B44006
S1132070624002EA01036340C0F8B43010BC704708
S11320800A48D0F8B840624002EA01036340C0F84D
S1132090B83010BC70470548D0F8BC40624002EA32
S11320A001036340C0F8BC3010BC704700A0084076
S11320B048310000034A536823F4E0130343536098
S11320C0704700BF00A0084070B505460C46164690
S11320D00AB354B91A4B9D4228D003F580639D423C
S11320E026D11848FFF7E4FA04466401B4FBF6F479
S11320F047F6F873203CB3EBC40F4FEAC4060FD382
S113210047F6F8722B6C1640DA0702D46B6C5B0747
S1132110FCD4EE6070BDFE210B48FEF7EFFDD8E75E
S113212040F233110848FEF7E9FDE9E70748D9E72B
S11321304FF49371BDE870400348FEF7DFBD00BF64
S11321400040084090171C00E831000090071A0076
S113215038B50E4B044698420D4608D003F580630B
S1132160984204D040F257110948FEF7C7FDE943ED
S1132170236C490001F00A01DA0745EA010502D49B
S1132180636C9B07FCD4656038BD00BF0040084009
S1132190E8310000F8B5174B044698420E4608D0C3
S11321A003F58063984204D04FF4DC711248FEF7C3
S11321B0A5FD236CDA0702D4636C9B07FCD40A23C5
S11321C06360656C002DFCD1D6E901120123236400
S11321D0777B337B20463B43276827F01C0CB77B77
S11321E03B4343EA0C032360FFF76EFF33786360DD
S11321F02564F8BD00400840E831000083689B0670
S1132200FCD5C069C0B270478368DB06FCD5036C9B
S1132210DA0702D4436C5B06FCD48162704700BFCA
S113222010B50446D8B1104AD2F8E430D2F8E01020
S11322309B0003F03C03C1F381110B43A370D2F85C
S1132240E03003F03F036370D2F8E830D2F8EC20BA
S113225003F0F003C2F303121343237010BD5221A1
S11322600248FEF74BFDDEE700FF0FE03C320000C2
S11322702DE9F843314B044698420D460FD003F53F
S1132280806398420BD003F58063984207D003F52E
S11322908063984203D0A5212948FEF72FFD2978B1
S11322A009B90223636000266B78AA7AB3426B7A79
S11322B0E87A14BF4FF04008B046B34214BF8023FD
S11322C03346B2422A7B14BF20273746B0422879CE
S11322D0666218BF1026002A6A7914BF4FF0080EF0
S11322E04FF0000E002814BF4FF4005C4FF0000CB8
S11322F0002A14BF4FF080500020EA7895F802902D
S1132300120442EA096295F8089042EA090295F833
S11323100690ED7942EA892242EA052242EA08025D
S113232013433B43334343EA0E0343EA0C0303439F
S1132330236009B101236360BDE8F8830000014014
S113234090320000224B70B5984206460D46144662
S11323500FD003F5806398420BD003F58063984255
S113236007D003F58063984203D0F5211948FEF79E
S1132370C5FC022D26D8637822781B0643EA8263C3
S1132380A2791343A27843EA0243E27843EA023390
S1132390227943EA8223627943EA0223E2790AB189
S11323A043F40013227A0AB143F48013627A0AB127
S11323B043F01003A27A0AB143F0040303352D015C
S11323C0735170BDF6210348FEF798FCD3E700BFB4
S11323D0000001409032000008B5074B044613B1D9
S11323E00021AFF30080054B1868836A03B1984756
S11323F02046FEF73DF800BF00000000E032000078
S113240070B500260C4D0D4C641BA410A64209D1D6
S113241000F03CFC00260A4D0A4C641BA410A642A2
S113242005D170BD55F8043B98470136EEE755F8E1
S1132430043B98470136F2E770000020700000204A
S1132440700000207400002003460244934200D12F
S1132450704703F8011BF9E72DE9F7431D465D4B6F
S113246004461F680E46904627B1BB6913B9384627
S113247000F0D6F9584B9C4267D17C68B8F1020F42
S113248006D0B8F1010F00F29F80002DC0F29C80AD
S1132490636EDB0705D4A389980502D4A06D00F010
S11324A05DFA2146384600F027F9616B41B104F129
S11324B04403994202D0384600F080FA0023636353
S11324C00023A3616360A389190603D538462169F3
S11324D000F074FAA389B8F1020F23F44A6323F0DD
S11324E00303A3816CD001AB6A462146384600F051
S11324F037FAA3891843A081002D30D1009D2846C6
S113250000F054FA0646002855D1DDF80090A9459C
S11325104AD14FF0FF350022A26004F14702226045
S113252022610122B4F90C306261626E43F002034D
S1132530D207A38105D413F4007F02D1A06D00F06B
S11325400EFA284603B0BDE8F083244B9C4201D127
S1132550BC6893E7224B9C4208BFFC688EE7002EC0
S1132560CDD0BB6913B9384600F05AF9B8F1010F60
S113257008BFA389C4E9046504BF43F00103A38130
S1132580A289266012F008031CD0D30741BF0023A0
S11325906D42A360A56158BFA560656E15F0010585
S11325A015D112F4007FC8E7484600F0FFF906464B
S11325B00028AED04D46A38943F08003A381D0E721
S11325C00025A8E7A360E8E74FF0FF35B9E7002549
S11325D0B7E700BF0C0000200433000024330000E0
S11325E0E4320000034613F8012B002AFBD1181A29
S11325F0013870478A89F8B5054610070C4657D448
S11326004B68002B04DC0B6C002B01DC0020F8BDB4
S1132610E66A002EFAD0002312F480522F682B6051
S113262032D0606DA3895A0705D56368C01A636BFD
S11326300BB1236CC01A00230246E66A2846216ABD
S1132640B047431CA38906D129681D292CD8294ADF
S1132650CA40D60728D5002262602269D9042260C4
S113266004D5421C01D12B6803B96065616B2F60EE
S11326700029CBD004F14403994202D0284600F04B
S11326809DF900206063C2E7216A01232846B04710
S1132690411CC7D12B68002BC4D01D2B01D0162B95
S11326A001D12F60B2E7A38943F04003A381AEE7D1
S11326B00F69002FAAD0930718BF00230E6808BF24
S11326C04B69F61B0F608B60002E9FDD33463A4644
S11326D02846216AD4F828C0E047002806DCA389EC
S11326E04FF0FF3043F04003A38190E70744361ACC
S11326F0EAE700BF0100402038B50B6905460C46E7
S113270013B90025284638BD18B183690BB900F008
S113271087F8144B9C421BD16C68B4F90C30002B25
S1132720EFD0626ED00704D4990502D4A06D00F0F6
S113273015F928462146FFF75DFF636E0546DA0763
S1132740E0D4A3899B05DDD4A06D00F008F9D9E796
S1132750054B9C4201D1AC68DFE7044B9C4208BFA7
S1132760EC68DAE70433000024330000E4320000AC
S1132770002310B50446C0E90033C0E90433836084
S113278081814366C2818361194608225C30FFF768
S11327905BFE054B24626362044BA362044BE36259
S11327A0044B236310BD00BF212B0000432B00000A
S11327B07B2B00009F2B0000014900F0AFB800BF45
S11327C0F9260000682270B54D1E55430E4605F1EA
S11327D0740100F03BF9044640B10021C0E9001641
S11327E00C30A06005F16802FFF72EFE204670BD94
S11327F0014800F0B3B800BFB5000020014800F064
S1132800AEB800BFB5000020014800F0A7B800BF73
S1132810B6000020014800F0A2B800BFB6000020B6
S113282010B50446FFF7F0FFA3691BB1BDE81040E3
S1132830FFF7F0BFC4E912332365134B134A1B6837
S1132840A262A34208BF0123204608BFA36100F08F
S11328501FF86060204600F01BF8A060204600F0DE
S113286017F800220421E0606068FFF781FF01226D
S11328700921A068FFF77CFF02221221E068FFF71C
S113288077FF0123A361D1E7E0320000B9270000FC
S1132890F8B50746FFF7ACFF1E4B1E68B36913B9C2
S11328A03046FFF7BDFF4836D6E90134013B03D576
S11328B033680BB33668F7E7B4F90C50D5B9164B47
S11328C004F15800E360656600F047F8FFF796FFEF
S11328D008222946C4E90155C4E904552560A561C7
S11328E004F15C00FFF7B0FDC4E90D55C4E91255CD
S11328F02046F8BD6834D9E704213846FFF762FF63
S1132900044630600028D5D1FFF778FF0C233B60E4
S1132910EEE700BFE03200000100FFFF2DE9F843BD
S113292006468846002700F14804D4E90195B9F128
S1132930010905D52468002CF7D13846BDE8F88391
S1132940AB89012B07D9B5F90E30013303D02946E1
S11329503046C04707436835E9E77047704770471A
S113296070B50E46B1F90E10144600291D4696B0F6
S113297008DA0022B6F90C302A601A0610D44FF493
S113298080630EE06A4600F031F90028F1DB019A19
S113299002F47042A2F500535A425A412A60EEE70B
S11329A040230020236016B070BD0000024B014696
S11329B0186800F04BB800BF0C00002038B505467D
S11329C0002940D051F8043C0C1F002BB8BFE41878
S11329D000F030F91C4A136833B963601460284668
S11329E0BDE8384000F02CB9A34208D9206821186A
S11329F08B4201BF19685B6809182160EDE71A462C
S1132A005B680BB1A342FAD911685018A0420BD1EC
S1132A1020680144501883421160E0D118685B6853
S1132A20014411605360DAE702D90C232B60D6E726
S1132A30206821188B4201BF19685B68091821605E
S1132A4063605460CBE738BDB8000020F8B5CD1CF6
S1132A5025F0030508350C2D38BF0C25002D06463E
S1132A6001DBA94203D90C2333600020F8BD00F038
S1132A70E1F821490A6814469CB9204F3B6823B900
S1132A802146304600F03CF838602946304600F0D4
S1132A9037F8431C23D10C233046336000F0D0F8C0
S1132AA0E3E723685B1B17D40B2B03D923601C4477
S1132AB0256004E06368A2420CBF0B60536030469B
S1132AC000F0BEF804F10B00231D20F00700C21A29
S1132AD0CCD01B1AA350C9E722466468CCE7C41CB7
S1132AE024F00304A042E3D0211A304600F008F891
S1132AF00130DDD1CFE700BFB8000020BC000020CA
S1132B0038B50023054D044608462B6000F0B0F8A4
S1132B10431C02D12B6803B1236038BDC0000020E0
S1132B2010B50C46B1F90E1000F090F80028ABBFB8
S1132B30636DA3891B1823F48053ACBF6365A38121
S1132B4010BD2DE9F0411F468B890546DB050C4677
S1132B50164605D502230022B1F90E1000F058F8EC
S1132B60A389324623F48053A38128463B46B4F913
S1132B700E10BDE8F04100F017B810B50C46B1F9DD
S1132B800E1000F045F8431CA38915BF606523F4BB
S1132B90805343F48053A38118BFA38110BDB1F9BE
S1132BA00E1000F013B8000038B50446084611466C
S1132BB00022054D2A601A46FDF77AFC431C02D117
S1132BC02B6803B1236038BDC000002038B5002352
S1132BD0054D044608462B60FDF748FC431C02D112
S1132BE02B6803B1236038BDC000002038B5002332
S1132BF0064D0446084611462B60FDF73BFC431C7A
S1132C0002D12B6803B1236038BD00BFC00000208F
S1132C1038B50446084611460022054D2A601A4676
S1132C20FDF72EFC431C02D12B6803B1236038BD91
S1132C30C00000200148FFF791BE00BFB40000208F
S1132C400148FFF78CBE00BFB400002038B504462D
S1132C50084611460022054D2A601A46FDF712FC6B
S1132C60431C02D12B6803B1236038BDC00000208F
S1132C70044A05491368002B08BF0B46184410602A
S1132C8018467047C4000020C8000020F8B500BFF3
S1132C90F8BC08BC9E467047F8B500BFF8BC08BC39
S1132CA09E467047633A5C75736572735C736C6FB0
S1132CB0626F64616E5C73696D706C696369747969
S1132CC073747564696F5C73646B735C6765636B61
S1132CD06F5F73646B5C706C6174666F726D5C655E
S1132CE06D6C69625C696E635C656D5F6770696F6A
S1132CF02E68000004000000020000000400000030
S1132D00030000000101050707030402030204068F
S1132D1005060D0E0E0E0D0D0D0D0E0E0E0E0D0DE7
S1132D2001010507070304020302040605060F1048
S1132D3010100F0F0F0F101010100F0F01010507C7
S1132D4007030402030204060506111212121111EC
S1132D5011111212121211110101050707030402C5
S1132D60030204060506131C1C1C131313131C1C5A
S1132D701C1C1313000105070602030103020406C9
S1132D8004051D1E1E1E1D1D1D1D1E1E1E1E1D1D99
S1132D9000010507060203010302040604051F20BF
S1132DA020201F1F1F1F202020201F1F0101050797
S1132DB0070304020302040605062122222221211C
S1132DC021212222222221210705020103060423B4
S1132DD02323232323230705020103060424242495
S1132DE0242424240705020103060425252525257A
S1132DF0252507050201030604262626262626265F
S1132E0000010702062727272727000000000000EB
S1132E100000131211100F0E0D0C000000002125EC
S1132E20242601010304040203020D0E0D0D0E0DF0
S1132E300E0E01010304040203020F100F0F100F02
S1132E4010100101030404020302111211111211E2
S1132E5012120101030404020302131C13131C13B2
S1132E601C1C00010203040103021D1E1D1D1E1D66
S1132E701E1E00010203040103021F201F1F201F46
S1132E802020010103040402030221222121222122
S1132E90222205070704040605060E0E0D0D0E0E6C
S1132EA00D0D050707040406050610100F0F10107A
S1132EB00F0F05070704040605061212111112125A
S1132EC0111105070704040605061C1C13131C1C1A
S1132ED0131305070603040604051E1E1D1D1E1EEE
S1132EE01D1D050706030406040520201F1F2020BE
S1132EF01F1F05070704040605062222212122229A
S1132F0021210000000000118002000000000206E0
S1132F100000200039000F0000004015002040048C
S1132F20001000223F0006005B044F0466046D0499
S1132F307D0407007F046F0400000000000A000005
S1132F4080200000FFFF7704790A3900B02079005F
S1132F5071007D04760406000E00700A3800B60283
S1132F60B6083F0073043F08730C6D0401113E0062
S1132F7030223628802A6E040922390080080F0086
S1132F8001000800000158107C0458005E04582019
S1132F9071040C0C740404000E00700C38005414FA
S1132FA054045C04730467045004080C78001C0087
S1132FB010201428802A0C08482000003F00060036
S1132FC05B004F0066006D007D0007007F006F000E
S1132FD077007C0039005E00790071004000000039
S1132FE001000000030040000C000000000000008D
S1132FF000000000633A5C75736572735C736C6FF8
S1133000626F64616E5C73696D706C696369747915
S113301073747564696F5C73646B735C6765636B0D
S11330206F5F73646B5C706C6174666F726D5C650A
S11330306D6C69625C696E635C656D5F74696D6516
S1133040722E6800050000000000000080250000CA
S113305000000000433A2F55736572732F736C6F31
S1133060626F64616E2F53696D706C696369747902
S113307053747564696F2F53444B732F6765636B87
S11330806F5F73646B2F706C6174666F726D2F6504
S11330906D6C69622F7372632F656D5F636D752E3E
S11330A063000000633A5C75736572735C736C6FE4
S11330B0626F64616E5C73696D706C696369747965
S11330C073747564696F5C73646B735C6765636B5D
S11330D06F5F73646B5C706C6174666F726D5C655A
S11330E06D6C69625C696E635C656D5F636D752EA2
S11330F06800000003020600433A2F55736572739B
S11331002F736C6F626F64616E2F53696D706C699D
S11331106369747953747564696F2F53444B732FC7
S11331206765636B6F5F73646B2F706C6174666F3C
S1133130726D2F656D6C69622F7372632F656D5F9D
S11331406770696F2E630000433A2F55736572737D
S11331502F736C6F626F64616E2F53696D706C694D
S11331606369747953747564696F2F53444B732F77
S11331706765636B6F5F73646B2F706C6174666FEC
S1133180726D2F656D6C69622F7372632F656D5F4D
S11331906C63642E63000000633A5C75736572733C
S11331A05C736C6F626F64616E5C73696D706C6983
S11331B06369747973747564696F5C73646B735C4D
S11331C06765636B6F5F73646B5C706C6174666F6F
S11331D0726D5C656D6C69625C696E635C656D5F84
S11331E06275732E68000000433A2F55736572733D
S11331F02F736C6F626F64616E2F53696D706C69AD
S11332006369747953747564696F2F53444B732FD6
S11332106765636B6F5F73646B2F706C6174666F4B
S1133220726D2F656D6C69622F7372632F656D5FAC
S11332306C65756172742E6300000000433A2F556B
S1133240736572732F736C6F626F64616E2F536951
S11332506D706C696369747953747564696F2F5305
S1133260444B732F6765636B6F5F73646B2F706C74
S11332706174666F726D2F656D6C69622F73726312
S11332802F656D5F73797374656D2E6300000000A4
S1133290433A2F55736572732F736C6F626F646159
S11332A06E2F53696D706C696369747953747564B6
S11332B0696F2F53444B732F6765636B6F5F736440
S11332C06B2F706C6174666F726D2F656D6C6962C3
S11332D02F7372632F656D5F74696D65722E630061
S11332E010000020000000000000000000000000AA
S11332F000000000000000000000000000000000CA
S113330000000000000000000000000000000000B9
S113331000000000000000000000000000000000A9
S11333200000000000000000000000000000000099
S11333300000000000000000000000000000000089
S10B3340000000000000000081
S10B3348D4CDFF7F0100000059
S1133350809FD500006CDC0200800000100000207B
S1133360000000000433000024330000E4320000B5
S11333700000000000000000000000000000000049
S11333800000000000000000000000000000000039
S11333900000000000000000000000000000000029
S11333A00000000000000000000000000000000019
S11333B00000000000000000000000000000000009
S10B33C001010000DD00000022
S903030DEC
