:10000000000002200D030000390300003903000046
:1000100039030000390300003903000039030000F0
:1000200039030000390300003903000039030000E0
:1000300039030000380300003903000011110000EB
:1000400039030000390300003903000039030000C0
:1000500039030000390300003903000039030000B0
:1000600039030000390300003903000039030000A0
:100070003903000039030000D510000039030000E7
:100080003903000039030000390300003903000080
:100090003903000039030000390300003903000070
:1000A0000D1300003903000039030000390300007C
:1000B0003903000039030000390300003903000050
:1000C0003903000039030000390300003903000040
:1000D00039030000390300003903000010B5054C56
:1000E000237833B9044B13B10448AFF300800123E4
:1000F000237010BD280100200000000044510000C2
:1001000008B5034B1BB103490348AFF3008008BD9A
:10011000000000002C01002044510000A3F5803AAB
:10012000704700BF174B002B08BF134B9D46FFF7CE
:10013000F5FF00218B460F461348144A121A03F0AC
:1001400075FF0E4B002B00D098470D4B002B00D0B5
:1001500098470020002104000D000D48002802D01F
:100160000C48AFF3008003F03DFF2000290000F0B1
:10017000D7FF03F023FF00BF0000080000000000CD
:10018000000000000000022028010020A40D002033
:10019000000000000000000008B501210A4801F03D
:1001A000A9FE0121094801F0A5FE04220023104602
:1001B000022102F0DBF9042200231046032102F0A1
:1001C000D5F9002008BD00BF4081040000D2040022
:1001D000012821D838B5134B13F8304003EBC00089
:1001E000042C456810D84FF6FF72EA40D3070DD5AE
:1001F000012304EBC404A40004F1804404F5C044CA
:10020000AB400020236138BD052C08D040F22B41C3
:10021000054801F0C9FAEBE74FF0FF30704741F6AF
:10022000FF72E2E7C44800007848000010202D4A21
:10023000F8B5516C2C4B41F400515164D3F82011A6
:1002400041F00401C3F82011D3F8201121F44071CA
:10025000C3F82011D3F8B81021F47061C3F8B810B6
:10026000D3F8B81041F48061C3F8B8101062D36AB3
:100270009B06FCD51D4B1E49D3F8F0201D4C42F0C7
:100280000102C3F8F020D3F8FC201B4842F0807232
:10029000C3F8FC200C6001F061FF03464FF06042A0
:1002A00002274FF48076012003F5D523DFF84CC0F8
:1002B00003F2FC43DB08ACFB03C31149114D124CA4
:1002C0009B0A013B0B61C1F8F070C1F80463C2F8EE
:1002D000B05FC2F8804ED2F8003E0343C2F8003E41
:1002E000F8BD00BF00800C400060004000ED00E061
:1002F000001000E0FF13014006000E001791650298
:10030000000004E055CEACC5090001000648804756
:100310000649074A074B9A42BEBF51F8040B42F800
:10032000040BF8E7FFF7FEFE410400005051000007
:100330000000002028010020FEE700BF00487047B1
:10034000006CDC02274AD36A03F47053B3F5805F74
:100350002FD0B3F5005F32D0B3F5006F2CD0D36847
:1003600003F4E063B3F5407F3AD007D8B3F5807F5C
:100370002CD0B3F5007F11D11B4807E0B3F5806F97
:1003800020D0B3F5A06F194818BF0020154B1B688B
:10039000C3F382330133B0FBF3F07047A3B9144BBE
:1003A0001448D3F8FC20144BB2F1985F38BF1846BC
:1003B000ECE74FF40040E9E7104B1868E6E7104B14
:1003C0001868E3E70F48E1E70020DFE7084B0E4835
:1003D000D3F8FC200D4BB2F1985F38BF1846D5E733
:1003E0000B48D3E700800C40C0D8A700003FAB010A
:1003F0000081E00F804F120040420F0004000020F7
:1004000008000020406F400140B56400C0CF6A0082
:10041000809FD50008B5FFF795FF044B044A5B6841
:1004200003F00F03D840106008BD00BF00800C40EF
:1004300000000020014B1868704700BF0400002036
:10044000014A024B9A6070470000000000ED00E096
:100450004FF40040704700BF4FF47A70704700BF00
:10046000014B1868704700BF08000020002070474B
:10047000FEE700BF4FF4005300204B60704700BF01
:100480000020704770B57AB10D461646002404E08E
:100490000134A64205F8010B04D000F0D5FF431C3F
:1004A000F6D10CB1204670BD4FF0FF34FAE700BF23
:1004B00070B5161E07DD0C468D1914F8010B00F0FF
:1004C000FFFFA542F9D1304670BD00BF002210B534
:1004D000284C1046214602F0C3FC21460022012090
:1004E00002F0BEFC21460022022002F0B9FC2146A7
:1004F0000022032002F0B4FC21460022042002F076
:10050000AFFC21460022052002F0AAFC2146002271
:10051000062002F0A5FC21460022072002F0A0FCE4
:100520000022FF21104602F0FFFC0022FF210120E3
:1005300002F0FAFC0022FF21022002F0F5FC00226A
:10054000FF21032002F0F0FC0022FF21042002F032
:10055000EBFC0022FF21052002F0E6FC0022FF2137
:10056000062002F0E1FCBDE810400022FF21072038
:1005700002F0DABC00F00FF010B501210446224869
:1005800001F0B8FC0321214801F0B8FE40212048C9
:1005900001F0E8FA012001F0C7FF01211D4801F038
:1005A000A9FC00221C4B1D48996A9A6202F000FBCC
:1005B0000121082002F034FB0121102002F030FB61
:1005C0000121802002F02CFB01214FF4807002F009
:1005D00027FB01214FF4007002F022FB34B9FFF732
:1005E00075FF0D4A536E002BFCD110BD4FF4402017
:1005F00002F0FEFC4FF4803002F004FB084AD36F97
:1006000043F00803D367EAE7D0433E0002001E0030
:1006100080002A0000362C0000A00840F84A0000A4
:1006200000800C4008B500227821012002F07CFCFB
:1006300000227821022002F077FC0022782103209A
:1006400002F072FC00227821042002F06DFC0022EE
:100650007821052002F068FC00227821062002F0B3
:1006600063FCBDE8084000227821072002F05CBC52
:1006700042F20E732DE9F04F984283B008DC10F57A
:100680007A7F814650DC40F2E7390123019303E091
:10069000002342F20F790193274B5E6E002EFCD1AE
:1006A00001271F66FFF7BEFF07202321DFF88C809C
:1006B000DFF88CB0B9FBF7F4ABFB0432019BD20836
:1006C00002EB8202A4EB42021BBB1E4B33F812A0CA
:1006D0004546002404E0072C0ED0E97915F8010BFB
:1006E0004AFA04F313F0010F04F10104F3D00122DC
:1006F00002F0A4FA072CF0D10136042E08F10E08FE
:100700000CD007EB870798F8061018F8010C7F004B
:10071000D0E7032ED9D14FF0400AD9E70022064B8B
:100720001A6603B0BDE8F08F002802DAC0F10009B4
:10073000ABE700230193AFE700A008409949000010
:10074000CDCCCCCCD44A000038B5114B13F8304096
:1007500003EBC003042C5D6807D9052C15D040F2CB
:100760002B410C4801F020F804E04FF6FF72EA40FC
:10077000D307F4D5012304EBC404A40004F180449E
:1007800004F5C044AB40236138BD41F6FF72EEE78B
:100790000C0000207848000009B1FFF7D5BF38B53C
:1007A0000346114810F8334000EBC300042C4568A1
:1007B00015D84FF6FF72EA40D3070AD5012304EBA0
:1007C000C404A40004F1804404F5C044AB40636158
:1007D00038BD4FF47F71054800F0E6FFEEE7052CC9
:1007E000F7D141F6FF72E6E70C00002078480000E0
:1007F0004FF480620021014803F018BC5809002022
:100800000021064B186002781A7142785A7182787A
:100810009A71C2781972DA71704700BF48010020DE
:100820007F2800D970473F29FCD8002AFADD4FF015
:10083000010C0A4B00B501F0070EC91000EBC11006
:100840001A44024403440CFA0EF040B219780143F2
:1008500003F8011B9342F9D15DF804FB580900200D
:100860007F2800D970473F29FCD8002AFADD70B5EF
:10087000002301260C4C89B23F2901F1010C03F140
:1008800001030CD84FEAD10E00EBCE1E14F80E5027
:1008900001F0070106FA01F1294304F80E109A420B
:1008A0001FFA8CF1E8D170BD580900202DE9F84FEE
:1008B0001F46131A002B044615460E4603DA3E4621
:1008C0002C460F460546BB1B002B05DA3246234655
:1008D0003E462C4617461D46BE4261D0AC4253D020
:1008E000A5EB0409A7EB060889EAE97288EAE87330
:1008F000A2EBE972A3EBE8739A425DDD404602F099
:100900005BFE024648469046894602F055FE024686
:100910000B464046494602F0E3FF80463046894692
:1009200002F04AFEAC4206460F4640F394804FF078
:10093000000ADFF87CB1013DA3B27F2B17D85B46DC
:1009400052463046394602F0EBFC03F0B1F880B273
:100950003F28A3B20BD8C20803EBC21301225549AA
:1009600000F0070002FA00F0CA5C1043C854304699
:10097000394642464B4602F0D1FC013CAC420646A9
:100980000F46D9D1BDE8F88FBE4202DD33463E4660
:100990001F4631462046BA1BBDE8F84FFFF760BF3F
:1009A000AC4202DD23462C461D46314620462A1B1A
:1009B000BDE8F84FFFF734BFBE42E3DC484603F022
:1009C00059F90546404603F055F90146284603F01B
:1009D00059FA02F003FE80462046894603F04AF9A0
:1009E00002F0FCFD4FF0000A04460D46DFF8C0B0EF
:1009F000013752465B462046294602F091FC03F03F
:100A000057F8034620461C461FFA84FCBCF17F0FB2
:100A100029464246B5B24B4606F1010614D83F2D91
:100A200012D864464FEAD50C04EBCC144FF0010CFD
:100A3000DFF880E005F007050CFA05F51EF804C0A4
:100A400045EA0C050EF8045002F06AFCB742044671
:100A50000D46CED196E74FF0000ADFF854B00135CD
:100A6000A3B27F2B17D85B4652463046394602F078
:100A700057FC03F01DF880B23F28A3B20BD8C20880
:100A800003EBC21301220B4900F0070002FA00F049
:100A9000CA5C1043C8543046394642464B4602F0C1
:100AA0003FFC0134A54206460F46D9D16AE700BF94
:100AB0000000E03F580900202DE9F04FDFF8B88032
:100AC0002E4E98F8003083B006EBC30251682C4DCF
:100AD0000422074616F83300012301F047FD98F879
:100AE0000000FFF731FE2878FFF72EFE98F800008F
:100AF0000021FFF751FE28780021FFF74DFE2D78E9
:100B000098F800A00724DFF87CB0DFF87C9006EBB3
:100B1000C50815E0052B2CD04FF47F715846CDE960
:100B2000002300F041FEDDE90023012103EBC303B4
:100B300009EB830301FA02F2013C5A61631C15D0F0
:100B400047FA04F1504601F00101FFF725FE28465F
:100B5000FFF7FAFD16F83530D8F80420042BD9D861
:100B60004FF6FF71D140C907DFD4D5E703B0BDE828
:100B7000F08F41F6FF71F5E7460100200C000020E0
:100B800045010020784800000060004070B5114D1C
:100B9000114C2A78012304EBC20114F83200496891
:100BA000042201F0E3FC00212878FFF7F5FD0B4B50
:100BB0001878FFF7C9FD2878FFF7C6FD01232A78CA
:100BC00004EBC20114F8320049681A46BDE87040CF
:100BD00001F0CCBC460100200C00002045010020A3
:100BE0002DE9F84301231F4E1F4D3278DFF87C803A
:100BF00005EBC20115F8320049681A4601F0B6FC4F
:100C000098F800001A4FFFF79FFD10E0052C25D043
:100C100040F2CD31384600F0C7FD164B04EBC4045A
:100C200009EB441423449B001B68012B0FD133783C
:100C300015F8334005EBC303042CD3F80490E5D832
:100C40004FF6FF7323FA09F3DB07E6D4E0E798F8E1
:100C500000000021BDE8F843FFF79EBD41F6FF7399
:100C6000F0E700BF460100200C00002045010020F5
:100C700078480000E00083102DE9F04F254D264E06
:100C80002B78074606EBC302516816F8330004229E
:100C9000012383B001F06AFC204B95F800901D7889
:100CA0000724DFF87CB0DFF87CA006EBC50815E070
:100CB000052B2CD04FF47F715846CDE9002300F06E
:100CC00073FDDDE90023012103EBC3030AEB83037A
:100CD00001FA02F2013C5A61631C15D047FA04F193
:100CE000484601F00101FFF757FD2846FFF72CFDAC
:100CF00016F83530D8F80420042BD9D84FF6FF71F8
:100D0000D140C907DFD4D5E703B0BDE8F08F41F685
:100D1000FF71F5E7460100200C000020450100208E
:100D200078480000006000402DE9F0411F4B054667
:100D30001C7886B02CB301224FF0000E4FF0020C4D
:100D40001B4BDFF870801C4F1C4E1D48C8F8582004
:100D500001A983F800E05D70044601970293ADF8A5
:100D60000CC00496ADF8142001F0C4FE204601F03A
:100D70009BFD0128FAD001220E4BDA6506B0BDE8D2
:100D8000F0817820FFF798FEFFF72AFF2046FFF753
:100D900073FFFFF725FF2846FFF76EFFFFF720FFE1
:100DA00006B0BDE8F041FFF7F1BE00BF47010020EB
:100DB00058050020006000403C0001005401002064
:100DC00000A400402DE9F04F212083B0FFF7ACFFD5
:100DD0000020FFF7A9FF7F20FFF7A6FF2220FFF7E3
:100DE000A3FF0020FFF7A0FF0720FFF79DFF3B4B6D
:100DF0001B78002B65D0DFF8E8B03A4E002B43D1CA
:100E00000724394F01233878042206EBC0014968D2
:100E100016F830009BF800A001F0A8FB334B97F8C0
:100E200000901D78CDF804B0DFF8C480A34606EB2F
:100E3000C50714E0052C3ED04FF47F712D48009378
:100E400000F0B2FC009B012104EBC4040BF1FF3B5A
:100E50009940BBF1FF3F08EB8403596124D04AFA63
:100E60000BF1484601F00101FFF796FC2846FFF719
:100E70006BFC16F835407B68042CDBD84FF6FF710D
:100E8000D940CA07DFD4D7E71B4A0BF1010B5A45FB
:100E900014D0194A0BF1010B5A45AFD173B903B005
:100EA000BDE8F04FFFF772BEDDF804B0FFF798FE23
:100EB0000A4B1B78EDE741F6FF71E1E703B0BDE8AF
:100EC000F08F7820FFF7F8FDFFF78AFE4020FFF74C
:100ED000D3FEFFF785FE014B1B788CE7470100200E
:100EE000580900200C000020460100204501002088
:100EF0000060004078480000580D002010B584B014
:100F00006C46134B0FCB84E80F0001230B22042106
:100F1000022001F02BFB01230B220521022001F00E
:100F200025FB002304221946022001F01FFB40F29A
:100F3000031308482146836301F076FC002306482A
:100F4000064A074903700B70137004B010BD00BF50
:100F50000C4B000000A40040550500205605002061
:100F600054050020152238B5FF2100241425304BEC
:100F700030481A70304B314A1C7011700570FFF701
:100F8000BDFFAE20FFF7D0FED520FFF7CDFE8020BD
:100F9000FFF7CAFEA820FFF7C7FE3F20FFF7C4FEF9
:100FA000D320FFF7C1FE2046FFF7BEFE4020FFF72B
:100FB000BBFE8D20FFF7B8FE2846FFF7B5FE2020C8
:100FC000FFF7B2FE2046FFF7AFFEA120FFF7ACFE11
:100FD000C820FFF7A9FEDA20FFF7A6FE1220FFF7D0
:100FE000A3FE8120FFF7A0FECF20FFF79DFED920B2
:100FF000FFF79AFEF120FFF797FEDB20FFF794FE44
:101000004020FFF791FEA420FFF78EFEA620FFF7F9
:101010008BFEAF20FFF788FE4FF480622146084820
:1010200003F004F8FFF7CEFE064B1C6038BD00BF8E
:101030004501002046010020470100204401002016
:10104000580900204801002030B500251F2387B033
:1010500028468DF80730CDE903558DF804508DF8FA
:1010600005508DF806508DF808508DF809508DF810
:10107000145000F07BFB0346294614488DF80730D6
:1010800000F052FB0346124C01A920468DF80830AF
:1010900000F09CFA05230222204603A98DF80D30AA
:1010A0008DF810508DF80E2000F008FB01236360CE
:1010B000A368DB07FCD441F28833606A80B203FB8B
:1010C00000F0C0F30F3007B030BD00BFC0D8A7009C
:1010D0000020004001220C4B10B59A615C6DD9696B
:1010E000A14202D80022DA6510BD0A34B4F5803F6F
:1010F00002D2054BDC6510BD40F2FA21034800F036
:1011000053FB014BDC65F6E7000C01405C4D000031
:10111000024A136801331360704700BF5C0D002062
:1011200001212DE9F0416C4A6C4B1164D3F8FC406D
:1011300088B004A802F012F8B4F1805F04D39DF8DF
:101140001030022B00F2AA80FFF770F8FFF724F8A6
:101150000020FFF73DF8624801F000F8614AA2FB69
:1011600000239B09013BB3F1807F80F09680012131
:1011700000244FF0E0224FF0E00E07270E46DFF884
:1011800068C1536159488CF823E09461176100F0FD
:10119000B1FE3146564800F0ADFE0422234610460B
:1011A000022101F0E3F902210323524D01AA28464E
:1011B000CDE9024401948DF80A308DF805108DF8C0
:1011C00006108DF8096002F05BF8AB6A484843F4FA
:1011D000803343F00403AB62EC65CDE9044406942C
:1011E0008DF81C408DF810608DF811608DF812702C
:1011F00000F0B4FF64249DF8123020FA03F3B3F535
:10120000C80FB3FBF4F457D231A7D7E900674FF406
:1012100080453848384AC461C36804A943F00103D3
:10122000C360156001F0C2FF0020FFF7A5F900F0D0
:10123000A1F8002000F096F8012300211A460320AF
:1012400001F094F901212D4800F054FEFFF78AFEC9
:101250002B48FFF7D5FAFFF7CBFA00213F237F2277
:101260000846FFF723FBFFF7ADFDDFF878804FF46A
:101270007A740025FFF7E8FE013C0544FAD1A8FB8B
:101280000530800902F098F932463B4602F0FEF93B
:1012900002F00EFCFFF7ECF9E9E7FEE79DF81120FC
:1012A000022A0FD0174AD2F8C03023F0500343F07F
:1012B0001003C2F8C03047E740F28941124800F0FD
:1012C00073FAA1E7042BEDD13EE700BFAFF3008036
:1012D0009A9999999999B93F00000C400081E00FC3
:1012E00070000200D34D621000ED00E000D2040057
:1012F00000820400000C014000E100E00002050053
:101300001C4B000000800C405C4D0000104838B5BC
:10131000C36A5B0700D438BD0E4C256801F00CFF92
:101320000D4A0E4B50552268013222601A68013274
:101330001A602268082A04BF002222601A68082A5C
:10134000E9DD0022064922601A600A6038BD00BF4C
:1013500000400840740D0020640D00206C0D00203A
:10136000700D0020003818BF0120014B1870704725
:10137000600D0020F0B5012185B02A4800F0BAFDCB
:10138000042200266D4611460123032001F0EEF8E9
:10139000334601220521032001F0E8F8012304224D
:1013A0000721052001F0E2F81F4B204F0FCB85E805
:1013B0000F0001211E4800F09DFD06211D4800F090
:1013C0009DFF3846012100F095FD3846012100F0CF
:1013D000C9FB4FF4E133184C294620464FF0807585
:1013E000029303278DF8006001F072FE0423134A74
:1013F00067656363C2F88051A36B204643F0040322
:10140000A3630521156001F041FE0D4A33461068C3
:1014100031460222806802F011FE0122094B1A7047
:1014200005B0F0BD00D20400AC4D000090071A00DA
:10143000D0433E00030020000040084000E100E0EF
:10144000BC000020610D002038B5184B1B783BB361
:1014500072B6174D174C2B685A1C19D022680133ED
:10146000002A2B601FDD144A14481168405C116883
:10147000C0B2013111601168082904BF0021116058
:101480002268013A2260013B2B6003B962B638BD85
:101490002268002AE7DC6FF0010218462A6038BD96
:1014A000FFF768FFD4E74FF0FF30ECE7610D002055
:1014B000580D00206C0D0020700D0020640D0020E0
:1014C00038B5134B04461B7873B1124D2B780BB112
:1014D0000A2C12D02146104801F034FE2B780BB1B3
:1014E0000D2C04D0204638BDFFF744FFEDE70A215C
:1014F000094801F027FE204638BD0D21064801F0BD
:1015000021FE2146044801F01DFE204638BD00BFE3
:10151000610D0020600D00200040084030B4274DD0
:10152000274C002A18BF1025264B04BF2B46002548
:10153000A042426B01D030BC70471340062913D83B
:10154000DFE801F0352F1F04121216001E49D1F8F2
:10155000B821D1F8B811120C02F4FE42C1F30641D1
:101560000A4302FA05F52B43154A536330BC704712
:10157000154AD2F8BC2102F07F0202FA05F52B438E
:10158000F2E71149D1F8B821D1F8B81102F4FE42BE
:1015900001F07F010A4302FA05F5094A2B43536320
:1015A000E4E70949D1F8B421D1F8B411D3E70649E9
:1015B000D1F8B421D1F8B411E8E700BF8080FFFF73
:1015C00000200040FFFF80800080E00F70B5354BA9
:1015D000054698420E460C7904D04FF4BD7132484E
:1015E00000F0E2F831483CBB00F0B8FD304B314C24
:1015F0001844A4FB002498424FEAD45488BF04F155
:10160000FF347F2C28BF7F240A2371796B607378A5
:1016100032781B0143EA0263F278B07812042402A4
:10162000034302F4F81204F4FE441343234309B1C4
:1016300043F008032B6070BD00F090FD1C4A1D4B69
:101640001044A3FB001390424FEAD35388BF03F129
:10165000FF337F2B28BF7F23DBB29C421BD3134871
:1016600000F07CFD144B00F5F9407F30A3FB002314
:10167000B0F5FA4F4FEAD32328BF03F1FF337F2B96
:1016800028BF7F23DBB29C42BED94FF4C37106480A
:1016900000F08AF8B8E740F28511034800F084F8BA
:1016A000DDE700BF00200040BC4D00004081040089
:1016B0003F5DC600A5E830A5D34D621038B5184B84
:1016C000054698420C4604D04FF45471154800F07A
:1016D0006BF802236B600022A1782846FFF71EFFFB
:1016E00063782178E2781B0543EA017343EA021329
:1016F0002179A27943EA01230AB143F08073E279A8
:101700000AB143F0040362790AB143F00203227A7A
:101710000AB143F00103A27843EA0243EB6038BD0B
:1017200000200040BC4D0000B0F5FA4F38BF4FF428
:10173000FA4010B50B4C844228BF044661B1601ECC
:101740000144B1FBF4F0A14228BF00F1FF307F2833
:1017500028BF7F20C0B210BD034800F0FFFC014647
:10176000EDE700BF405DC6004081040008B570B1E0
:101770000A4A0B4B904228BF104600F5742000F235
:101780003F20A3FB0030800C0138C0B208BD0548E3
:1017900000F0E4FC0028EBD108BD00BF0048E801E0
:1017A00083DE1B4340810400FEE700BF08B51C4BED
:1017B0005B6903F4E063B3F5407F26D012D8B3F53C
:1017C000807F19D0B3F5007F09D1164B1648D3F8A6
:1017D000FC20164BB2F1985F38BF184608BD6BB9B4
:1017E000134808BDB3F5C06F04D0B3F5E06F05D161
:1017F000104808BD104808BD104808BD4FF49E5160
:101800000F48FFF7D1FF002008BD064B0D48D3F865
:10181000FC200D4BB2F1985F38BF184608BD00BFE1
:1018200000800C400081E00F40B56400C0CF6A002A
:10183000809FD500406F4001003FAB01C0D8A7009A
:10184000084E0000804F120040420F0008B5154BB3
:10185000D3F8FC30C3F307434A2B0CD0792B0AD0C2
:10186000482B06D041F23C310F48FFF79DFF002086
:1018700008BD0E4808BD0E490E48D1F8E030D1F839
:10188000E820D1F8EC101B02C1F3031103F47C53E0
:101890000B4302F0F00205491343B3F5017F38BF53
:1018A000084608BD0081E00F084E00000048E8012E
:1018B00000FF0FE000366E0138B541F67133184C69
:1018C000E56BE363FEF73AFD636813F0060F04D19E
:1018D000144B98421BD904220DE003F00702042A9E
:1018E000F6D0104B984210D80F4B104A0344934245
:1018F0002CBF022203220A494B6823F0070313433B
:101900004B600DB10023CB6338BD0522F3E7064BD6
:10191000064A034493422CBF00220122EBE700BF9A
:1019200000000C400048E801FFDB0BFF0024F4003E
:1019300038B5224B0446D3F8FC30C3F307434A2B97
:1019400025D0792B23D0482B12D041F23C311C48B2
:10195000FFF72AFF002294420DD800210D46194BB3
:10196000194A9D67536823F480730B43536038BD55
:10197000164A9442F1D9FFF769FFB4EB400F4FF0DC
:10198000010594BF4FF480714FF40071E7E7104AEE
:101990000E48D2F8E030D2F8E810D2F8EC201B0262
:1019A000C2F3031203F47C53134301F0F001094A1C
:1019B0000B43B3F5017F38BF0246CCE70081E00F4F
:1019C000084E00000000904300800C400048E801F1
:1019D00000FF0FE000366E0141F67132174B10B474
:1019E000DC6BDA635B6813F0060F04D1144B98428A
:1019F0001CD904220DE003F00702042AF6D0104B94
:101A0000984211D80F4B104A034493422CBF022234
:101A100003220A494B6823F0070313434B600CB1C0
:101A20000023CB6310BC70470522F2E7054B064A42
:101A3000034493422CBF00220122EAE700000C403D
:101A40000048E801FFDB0BFF0024F40008B5C0F3F9
:101A50000313013B0C2B08D8DFE803F00E07071433
:101A600007071B2234070707420041F67411374865
:101A7000FFF79AFE012008BD354B1868C0F382308D
:101A8000013008BD0120324B9B6803F00F039840E2
:101A900008BD01202E4B5B6803F00F03984008BD82
:101AA0002C4B98424AD023D82B4B984238D003F580
:101AB000822398423BD10120254B9B6EC3F3032325
:101AC000984008BD254B98421CD003F5043398423A
:101AD0001FD041F66D111D48FFF766FE012008BDBD
:101AE00001201B4B5B68C3F300230344984008BDEF
:101AF0001B4B98421BD10120154B9B6E03F0030337
:101B0000984008BD0120124B1B6F03F0030398405F
:101B100008BD01200E4B1B6FC3F30113984008BD95
:101B200001200B4B9B6EC3F30313984008BD41F695
:101B300054110648FFF738FE012008BD0120044B70
:101B40009B6EC3F301330433984008BD084E000078
:101B500000800C4080002A008016120090071A00B6
:101B600080062E0038B5C0F30313013B0C460C2B46
:101B700008D8DFE803F00E070722070732527B0779
:101B80000707890041F64F21BDE83840B248FFF70A
:101B90000BBE4C1E072C00F21581FFF78DFEAF4ADD
:101BA000136823F4E03343EA84341460FEF732FC14
:101BB000BDE838400021FFF70FBF4D1EB5F5007F8F
:101BC00080F0F180B4FA84F4A44AC4F11F0493684D
:101BD00023F00F031C43946038BD4D1EB5F5007F04
:101BE00080F0CA80FFF768FEFEF714FCB0FBF4F04B
:101BF000FFF79EFEB4FA84F4984AC4F11F045368B8
:101C000023F00F031C435460FEF704FC0021FFF790
:101C1000E3FEBDE83840FFF78BBE914B984200F0E1
:101C2000DD8042D88F4B984200F0FA8003F5822382
:101C3000984240F0EE80B1F5004F59D8874B5B6D6C
:101C4000DA0703D4854A136D5B07FCD4631EB3F532
:101C5000004F56D2B4FA84F4804AC4F11F04936E44
:101C600023F4706343EA0423936638BD7E4B9842A5
:101C70004DD003F50433984263D0BDE8384041F6B7
:101C800049217548FFF790BD4B1EB3F5004F80F01A
:101C90009F80B4FA84F4714AC4F11E04536823F49B
:101CA000807343EA0424546038BD704B984240F07E
:101CB000B080082916D8694A536DD90702D4136D2C
:101CC0005B07FCD4631EB3F5004F80F0F780B4FAD5
:101CD00084F4624AC4F11F04936E23F00303234388
:101CE000936638BD41F615215B48FFF75DFDE2E7DD
:101CF00041F6F6115848FFF757FD584B5B6DD90771
:101D0000A0D540F624515A48FFF74EFDA2E7082916
:101D100000F2C280514A536DDD0702D4136D58069C
:101D2000FCD4631EB3F5004F80F0A480B4FA84F4B1
:101D30004A4AC4F11F04136F23F0030323431367BC
:101D400038BD082900F2A280444A536DD90702D455
:101D5000136D5B06FCD4631EB3F5004F80F09080DA
:101D6000B4FA84F43D4AC4F11F04136F23F0300326
:101D700043EA0413136738BD41F6CA113648FFF72A
:101D800013FDFFF799FDFEF745FBB0FBF4F0FFF7FD
:101D9000CFFDB5F5004FFFF42DAF40F62451344888
:101DA000FFF702FD26E741F6B4112B48FFF7FCFCD4
:101DB000B5F5004FFFF406AF40F624512C48FFF76D
:101DC000F3FCFFE641F6A1112348FFF7EDFCE4E642
:101DD00040F624512648FFF7E7FC5AE7A1F110032B
:101DE000702B65D81D4A536DDD0702D4136D58075B
:101DF000FCD4631EB3F5004F54D2B4FA84F4174AEE
:101E0000C4F11B04936E23F4405343EA04339366F6
:101E100038BD41F62321BDE838400F48FFF7C4BC68
:101E2000B1F5004F50D80D4B5B6DDD0703D40B4A65
:101E3000136D5807FCD4631EB3F5004F4DD2B4FAAE
:101E400084F4064AC4F11F04936E23F0F00343EABE
:101E50000413936638BD00BF084E000000800C409C
:101E600080002A008016120090071A0080062E00BB
:101E7000544E000040F624511B48FFF795FC55E7EF
:101E800040F624511848FFF78FFC69E741F63B21E3
:101E90001648FFF789FC57E741F62C211348FFF756
:101EA00083FC37E740F624510F48FFF77DFCA4E799
:101EB00041F605210D48FFF777FC93E740F62451E2
:101EC0000948FFF771FC02E741F6E8110748FFF700
:101ED0006BFC074B5B6DDB07A9D540F6245102482C
:101EE000FFF762FCABE700BF544E0000084E000055
:101EF00000800C4038B5C0F30323013B04460D4677
:101F0000092B06D8DFE803F00C131A050525340564
:101F1000053941F6D521BDE838401B48FFF744BCE0
:101F20001A48C4F304340444A400256038BD18489A
:101F3000C4F304340444A400256038BDFEF76AFAF3
:101F4000FFF7F6FC1348C4F304340444A4002560EE
:101F500038BD01211048C4F30434104A536DDB0727
:101F6000E1D4136D0B42FCD10444A400256038BDBC
:101F700010210B48C4F30434EFE70A48C4F30434D7
:101F80000444A400256038BD084E00004000E41061
:101F90002002E4100002E410C002E41000800C40B3
:101FA0000003E410C003E41000F00F00013808B58E
:101FB000062815D8DFE800F01B2B35141446040062
:101FC0002B4BDB6A03F46033B3F5803F44D0B3F5A9
:101FD000003F3FD0B3F5004F14BF0120092008BDDA
:101FE00042F225012348FFF7DFFB002008BD204B0C
:101FF000DB6A03F47053B3F5805F2BD0B3F5005F59
:102000002AD0B3F5006F14BF0520042008BD184A7C
:10201000936A03F00303013B022B1FD8164AD05CDE
:1020200008BD134A936A03F00C03082B14D00C2B41
:102030001BD0042B0ED0936A13F4801F0CBF012019
:102040000A2008BD0A4B1B6813F0805F0CBF0720F5
:10205000092008BD032008BD022008BD936A13F4BF
:10206000803F0CBF01200A2008BD062008BD00BF2C
:1020700000800C40084E0000A04E0000324B10B50E
:1020800098423BD0314B044698421BD1FFF78CFF5E
:102090002F4B9B6AC3F38103013B022B50D8DFE82F
:1020A00003F006020A00BDE81040FEF7D9B9BDE80A
:1020B0001040FEF7CDB9FEF7ADF9264B9B6F01330B
:1020C000D84010BD41F238612348FFF76DFB204630
:1020D000FFF76AFF044641F267611F48FFF764FBA0
:1020E000032C1DD801A353F824F000BF2B210000BE
:1020F000AF200000A7200000B7200000FFF754FF2A
:10210000134B9B6A03F00303013B022B0FD801A280
:1021100052F823F0AF200000A7200000B7200000F5
:1021200041F292610C48FFF73FFB002010BD1022E6
:10213000074B9B6AD340F8D0BDE81040FEF78CB93E
:10214000034B14229B6AF5E702001E0003002000E7
:1021500000800C4000009043084E000000F478130B
:10216000B3F5E01F10B57FD02ED8B3F5801F77D020
:102170001BD9B3F5B01F00F09D80B3F5D01F08D177
:102180005A48FFF77BFF5A4B1B6F03F00303D840FD
:1021900010BDB3F5901F70D15648FFF76FFF544B39
:1021A0009B6EC3F30313D84010BDB3F5802F6BD0E3
:1021B0001FD9B3F5602F60D14D4B1B68DB004FD5A5
:1021C000BDE81040FEF7BEB8B3F5281F7BD02BD971
:1021D000B3F5381F60D0B3F5781F13D10446FEF76E
:1021E00019F9034620461C46FFF730FCB4FBF0F01B
:1021F00010BD002BE4D0B3F5003F3ED1BDE8104048
:10220000FEF708B9B3F5301F37D13A48FFF736FF6C
:10221000374B9A6EDB6FC2F3013203F007030133D1
:10222000D040B0FBF3F010BDB3F5001F3DD0B3F5C7
:10223000181F0DD12E4BDB6A03F46033B3F5803FDA
:102240004BD0B3F5003F4CD0B3F5004F1AD1B7E7F0
:10225000B3F5F01F11D1BDE810402648FFF70EBFBF
:10226000BDE81040FFF7A2BA2048FFF707FF204B58
:102270001B6FC3F30113D84010BD41F605411E4842
:10228000FFF792FA002010BDFEF75CF8184B9B6830
:1022900003F00F03D84010BD1648FFF7EFFE144BB4
:1022A0009B6E03F00303D84010BD1048BDE81040FA
:1022B000FFF7E4BE0F48FFF7E1FE0D4B9B6EC3F343
:1022C0000323D84010BD0B48FFF7D8FE084B9B6E88
:1022D000C3F301330433D84010BDBDE81040FEF70E
:1022E000BFB8BDE81040FEF7B3B800BF0300200040
:1022F00000800C4002001E00084E000010B500F0E7
:102300000F04631E062B1ED8DFE803F01304041D20
:102310001D3124000139092966D8DFE811F0E400F5
:10232000B500CE0065006500D90065006500650058
:10233000E700023908295ED8DFE801F09DA26B951D
:102340005D5D5D5D640042F22431BDE810406E4881
:10235000FFF72ABA032938D009291FD0022924D02F
:10236000BDE8104042F22E216748FFF71DBA072949
:102370000ED0092906D0BDE8104042F2EF116248A4
:10238000FFF712BA614A136843F08053136010BD1F
:102390005E4A136823F08053136010BD20235B4A0C
:1023A0005362D36A1B04FCD510BD4FF48071574BA8
:1023B000574A1962D2F8A435002BFBD04023534A68
:1023C0005362D36AD803FCD510BD40214F4B504A0D
:1023D0001962D2F89C35002BFBD060234B4A536224
:1023E000D36A9903FCD510BD42F29411BDE81040A8
:1023F0004548FFF7D9B942F2EB01BDE81040424829
:10240000FFF7D2B942F2E601BDE810403E48FFF7BF
:10241000CBB9FFF71BFA0130FFF78AFAFEF70AF88B
:10242000022404213B4B3C4A98423848036896BF3B
:1024300023F0600343F0600343F020030360334B59
:1024400019621368002BFCD0FFF736FA2F4B5C6241
:10245000FDF7E0FF0446FFF76BFA2046BDE81040A9
:102460000021FFF7B9BAFFF7F1F90130FFF760FA81
:1024700021462A4AE3E74FF480710424284ADEE724
:1024800040210324274ADAE74FF480711F4B204A8A
:102490001962D2F8A435002BFBD000230220022CB5
:1024A0001A4926D08A6A1B0522F4801243EA800367
:1024B00022F00C0213438B6210BD4021134B144ACF
:1024C0001962D2F89C35002BFBD000230120E6E7EF
:1024D000FDF7A0FFFFF72CFA01210D4A002303208E
:1024E000C2F81018DBE700231846D8E701230020C4
:1024F000D5E78A6A22F4803222F00302024342EADC
:1025000003438B6210BD00BF084E000000800C40EA
:10251000000090430048E8018C05904384059043F7
:10252000A40590439C059043802810B504460BD821
:10253000084B9A6D120706D4D86F04F0070420F0F8
:1025400007000443DC6710BD42F2AF610248FFF7A9
:102550002BF9EDE700800C40084E0000EFF31080EF
:1025600072B6704700B962B6704700BF04282DE903
:10257000F04704460D46174698463AD9052800F01C
:10258000C3804FF4B0716248FFF70EF9C7BBE60095
:10259000072D4DD8DFF87C9133199B009944FFF744
:1025A000DDFF0F23D9F800104FEA850C07FA0CF273
:1025B0004A4003FA0CF313404B40C9F80030FFF7D0
:1025C000D1FFA7B9B8F1000F5FD0042C00F29780BB
:1025D0004FF6FF73EB40DA0776D501213444A400AF
:1025E00004F1804404F5C04401FA05F52561BDE815
:1025F000F0874FF6FF73EB40DE07C2D5002FC6D041
:10260000B8F1000F2ED0042C6FD84FF6FF73EB40BB
:10261000D80753D5012204EBC4039B0003F1804388
:1026200003F5C043AA40072D4FEAC4061A61B1D989
:102630003319DFF8E4909B009944A5F108034FEAB1
:10264000830AFFF78BFF0F23D9F8001007FA0AF26D
:102650004A4003FA0AF313404B40C9F80030FFF731
:1026600081FFAEE7042C3BD84FF6FF73EB40D90750
:1026700030D5012204EBC4039B0003F1804303F532
:10268000C043AA40E6005A6182E7042C32D84FF6D4
:10269000FF73EB40DB070BD501213444A40004F1A8
:1026A000804404F5C04401FA05F56561BDE8F08792
:1026B0004FF47F711948FFF777F8EDE740F22B41AF
:1026C0001648FFF771F8A5E740F22B411348FFF7D2
:1026D0006BF882E74FF47F711048FFF765F8C8E7A1
:1026E000052CF7D141F6FF73C0E7052CE6D141F682
:1026F000FF738CE7052CDBD141F6FF73C9E7052C8E
:10270000E2D141F6FF7365E741F6FF7373E700BF5F
:10271000A44E0000046000400860004078480000BB
:102720002DE9F0410646884603F003070368154685
:1027300023F440730360FFF711FF326882EA072336
:1027400003F4407353403360FFF70CFFB8F1000F00
:102750000AD12D4B9E424DD02C4B9E424FD040F281
:1027600029112B48FFF720F833689A071FD5032F4C
:1027700023D127484FF4AF71FFF716F8254BDC5DE6
:1027800005FB04F020B36FEA85052C184444B4FB24
:10279000F0F4013C23D4B4F5007F25D233689B07C5
:1027A00002D5002C08BF01243461BDE8F081032F5D
:1027B000DFD0194B53F8273002E0184B53F827307D
:1027C0009845D6D9134BDC5D05FB04F00028DAD11F
:1027D000BDE8F04140F26F110D48FEF7E5BF40F251
:1027E00075110B48FEF7E0FF4FF4BB710848FEF788
:1027F000DBFFD3E70A48FFF7B1FC8046B4E709489E
:10280000FFF7ACFC8046AFE700A0004000A400400A
:10281000F04E0000544F0000484F00003C4F0000B5
:1028200000B2040000C204001C4B70B5984204467C
:102830000E4608D003F58063984204D04FF4D2715D
:102840001748FEF7B1FF0020727804F142451549A0
:1028500005F5801582F001026B01606321635A6007
:10286000B268A2B12046337B7168FFF759FF0B4B6A
:1028700036789C4208D003F580639C4204D040F235
:102880008F110748FEF790FF6D012E6070BD40F27A
:102890000F110348FEF788FFE9E700BF00A00040E2
:1028A000F04E0000FFFF01008E4A034690422DE9E2
:1028B000F04122D002F58062904208D08A4840F26E
:1028C000FB11FEF771FF6FF00300BDE8F081874A4E
:1028D000996A946811F4C06C40F0BE8040254FF0B6
:1028E000050E03261078082800F2F480DFE800F0D7
:1028F0009883A6665B41381807007D4AE8E7C9055A
:1029000034D54FF480700921186392F901001170D9
:10291000002101285963D8D151700846BDE8F081E3
:10292000880623D51179508804EBC1042189DD691B
:10293000814233D96468461C5680255450888142B0
:102940002CD9042401295C6004D90139884201D1C1
:10295000082159601178092908D192F90100D7E7B7
:10296000080600F19B804F0600F181800120BDE840
:10297000F0811179508804EBC107B7F808808045D1
:1029800000F29B800131C9B211716088A2F802C0C7
:1029900047075BD4C70701D4012958D90820022171
:1029A00010705960E2E70F0678D44806DED56188DA
:1029B0001D6349075CD507231370D7E7608821881A
:1029C000C50643BF090A01F0060141F0F00101F01C
:1029D000FE01400709D5107941F0010104EBC00464
:1029E0002089012804BF08205860042401201470A5
:1029F00058605962BAE7080650D44F06B6D56188C8
:102A00001D63C80661D48F0732D507201179107075
:102A100004EBC1042289012AA8D108225A60A5E743
:102A200060882188C5062BD5090A01F0060141F00E
:102A3000F001012010705962586097E708062DD404
:102A4000490693D561881D638F0711D51670996A61
:102A500011F4C06F3FF446AF11F4007417D04FF675
:102A60000954002114806FF0020059632DE71D63A3
:102A700082F800E0996A11F4C06F3FF433AFEBE7DE
:102A800001F0FE01840748BF41F00101D1E74E0586
:102A90000CD4092192F90100117039E780244FF616
:102AA000087002211C63108059605FE74FF60961CE
:102AB0006FF0010011805C6307E7411C7C68518066
:102AC0000621205C5862117050E7022111702278B3
:102AD0005A624BE74FF60934002114806FF004006E
:102AE0005963F2E600A00040F04E0000840D002083
:102AF000780D002038B5294B044698420D463ED04B
:102B000003F5806398420DD040F25E312448FEF711
:102B10004BFE25B940F25F312148FEF745FE6FF0CC
:102B2000030038BD002933D01E4BA268D20744BF32
:102B3000202262606A88900702D529890029EED098
:102B4000510702D52A8A002AE9D0C0224FF48070AA
:102B500000219D60186019716260E368DA0503D591
:102B6000E369E368DB05FBD40F4B20462363636B0B
:102B700043F4FC636363BDE83840FFF795BE09B1D9
:102B80000A4BD2E740F25F310548FEF70DFEF7E74A
:102B900040F25F310248FEF707FEC5E700A00040A3
:102BA000F04E0000840D0020FFFF0100780D002092
:102BB00038B5124B04465D68D8B11049636808689F
:102BC00025F4830220F001000860E06822F01F0273
:102BD0000343207A13430343607A228A0343207815
:102BE00013434B6000B938BD0B6843F001030B6021
:102BF00038BD46210248FEF7D7FDDEE700A00840B9
:102C0000584F0000054B054A5B68B0F5803F23F440
:102C1000803308BF43F480335360704700A00840FE
:102C200021B1054B9A68104398607047024A936837
:102C300023EA00009060704700A00840072870B5A4
:102C40000C4618DC27290546164607DC07281ED83F
:102C5000DFE800F05E2D363E464E56244FF4CE712E
:102C60006E48FEF7A1FD072D11D8DFE805F08A2098
:102C700029313941491740F295116848FEF794FD12
:102C8000272C04DD4FF4CE716448FEF78DFDBDE8BE
:102C9000704040F206216148FEF786BD1F2C4DDCD6
:102CA00000F294805E4B23449B001E6070BD1F2C7D
:102CB00059DC00F286805B4B23449B001E6070BD94
:102CC0001F2C57DC78D8584B23449B001E6070BDE6
:102CD0001F2C41DC57D8554B23449B001E6070BD10
:102CE0001F2C24DC63D8524B23449B001E6070BD14
:102CF0001F2C2ADC51D84F4B23449B001E6070BD13
:102D00001F2C0DDC44D84C4B23449B001E6070BD2F
:102D10001F29E0DC46D8494B23449B001E6070BD50
:102D20003F2C76DC464B23449B001E6070BD3F2C3D
:102D30006ADC444B23449B001E6070BD3F2C5EDC6C
:102D4000414B23449B001E6070BD3F2C52DC3F4B27
:102D500023449B001E6070BD3F2C46DC3C4B23444B
:102D60009B001E6070BD3F2C3ADC3A4B23449B0015
:102D70001E6070BD3F2C2EDC374B23449B001E6031
:102D800070BD3F2CA7DD91213448FEF70DFDA2E771
:102D900091213248FEF708FDB5E791212F48FEF753
:102DA00003FDA8E791212D48FEF7FEFCB3E7912132
:102DB0002A48FEF7F9FC96E791212848FEF7F4FC33
:102DC00081E791212548FEF7EFFC74E79121234824
:102DD000FEF7EAFC66E791212048FEF7E5FCCBE729
:102DE00091211E48FEF7E0FCBFE791211B48FEF74A
:102DF000DBFCB3E791211948FEF7D6FCA7E7912148
:102E00001648FEF7D1FC9BE791211448FEF7CCFC55
:102E10008FE791211148FEF7C7FC83E7584F000068
:102E2000C006C5102002C5104002C5106002C510C2
:102E30006006C5108006C510A006C5100002C510AA
:102E4000C005C5108005C510E005C510A005C5105A
:102E5000C002C5108002C510A002C510A44F00001A
:102E6000072810B507DC07280AD8DFE800F01A2287
:102E70002A323A444E104FF413712948FEF794FC5D
:102E8000BDE810404FF423712548FEF78DBC25485E
:102E9000D0F8D840624002EA01036340C0F8D8305D
:102EA00010BD2048046C624002EA010363400364E1
:102EB00010BD1C48446C624002EA01036340436455
:102EC00010BD1848846C624002EA010363408364C9
:102ED00010BD1448C46C624002EA01036340C3643D
:102EE00010BD1048D0F8CC40624002EA01036340B4
:102EF000C0F8CC3010BD0B48D0F8D040624002EA98
:102F000001036340C0F8D03010BD0648D0F8D4406B
:102F1000624002EA01036340C0F8D43010BD00BF34
:102F2000584F000000A00840072813DC10B4072801
:102F30000ED8DFE800F0141D262F38434E042A482F
:102F4000D0F8C040624002EA01036340C0F8C030DC
:102F500010BC704740F2A5212448FEF725BC22484A
:102F6000046D624002EA01036340036510BC7047D0
:102F70001D48446D624002EA01036340436510BC92
:102F800070471948846D624002EA0103634083651B
:102F900010BC70471448C46D624002EA01036340EC
:102FA000C36510BC70471048D0F8B440624002EAD4
:102FB00001036340C0F8B43010BC70470A48D0F831
:102FC000B840624002EA01036340C0F8B83010BC68
:102FD00070470548D0F8BC40624002EA01036340F4
:102FE000C0F8BC3010BC704700A00840584F00002B
:102FF000034A536823F4E01303435360704700BF50
:1030000000A0084070B505460C4616460AB354B9F0
:103010001A4B9D4228D003F580639D4226D1184863
:10302000FFF79CF804466401B4FBF6F447F6F87326
:10303000203CB3EBC40F4FEAC4060FD347F6F87237
:103040002B6C1640DA0702D46B6C5B07FCD4EE6085
:1030500070BDFE210B48FEF7A7FBD8E740F2331105
:103060000848FEF7A1FBE9E70748D9E74FF4937159
:10307000BDE870400348FEF797BB00BF0040084022
:1030800090171C00F04F000090071A0038B50E4B47
:10309000044698420D4608D003F58063984204D058
:1030A00040F257110948FEF77FFBE943236C4900C2
:1030B00001F00A01DA0745EA010502D4636C9B07B7
:1030C000FCD4656038BD00BF00400840F04F0000F0
:1030D000F8B5174B044698420E4608D003F58063B6
:1030E000984204D04FF4DC711248FEF75DFB236C6C
:1030F000DA0702D4636C9B07FCD40A236360656C17
:10310000002DFCD1D6E9011201232364777B337BA8
:1031100020463B43276827F01C0CB77B3B4343EA20
:103120000C032360FFF76EFF337863602564F8BDFE
:1031300000400840F04F000083689B06FCD5C06942
:10314000C0B270478368DB06FCD5036CDA0702D493
:10315000436C5B06FCD48162704700BF10B5044627
:10316000D8B1104AD2F8E430D2F8E0109B0003F056
:103170003C03C1F381110B43A370D2F8E03003F09C
:103180003F036370D2F8E830D2F8EC2003F0F0038C
:10319000C2F303121343237010BD52210248FEF7FD
:1031A00003FBDEE700FF0FE0405000002DE9F8438D
:1031B000314B044698420D460FD003F58063984288
:1031C0000BD003F58063984207D003F580639842E3
:1031D00003D0A5212948FEF7E7FA297809B9022387
:1031E000636000266B78AA7AB3426B7AE87A14BFE0
:1031F0004FF04008B046B34214BF80233346B2427A
:103200002A7B14BF20273746B0422879666218BF50
:103210001026002A6A7914BF4FF0080E4FF0000EF6
:10322000002814BF4FF4005C4FF0000C002A14BFBC
:103230004FF080500020EA7895F80290120442EA9C
:10324000096295F8089042EA090295F80690ED792E
:1032500042EA892242EA052242EA080213433B433A
:10326000334343EA0E0343EA0C030343236009B1EB
:1032700001236360BDE8F883000001409050000026
:10328000224B70B5984206460D4614460FD003F502
:10329000806398420BD003F58063984207D003F512
:1032A0008063984203D0F5211948FEF77DFA022D7C
:1032B00026D8637822781B0643EA8263A2791343F7
:1032C000A27843EA0243E27843EA0233227943EAEE
:1032D0008223627943EA0223E2790AB143F40013BC
:1032E000227A0AB143F48013627A0AB143F01003E0
:1032F000A27A0AB143F0040303352D01735170BD66
:10330000F6210348FEF750FAD3E700BF0000014062
:103310009050000081F0004102E000BF83F00043C4
:1033200030B54FEA41044FEA430594EA050F08BF60
:1033300090EA020F1FBF54EA000C55EA020C7FEA24
:10334000645C7FEA655C00F0E2804FEA5454D4EBA1
:103350005555B8BF6D420CDD2C4480EA020281EA6B
:10336000030382EA000083EA010180EA020281EAA3
:103370000303362D88BF30BD11F0004F4FEA0131F5
:103380004FF4801C4CEA113102D0404261EB410104
:1033900013F0004F4FEA03334CEA133302D052428A
:1033A00063EB430394EA050F00F0A780A4F1010446
:1033B000D5F1200E0DDB02FA0EFC22FA05F2801880
:1033C00041F1000103FA0EF2801843FA05F3594166
:1033D0000EE0A5F120050EF1200E012A03FA0EFCE5
:1033E00028BF4CF0020C43FA05F3C01851EBE3710F
:1033F00001F0004507D54FF0000EDCF1000C7EEB2C
:1034000000006EEB0101B1F5801F1BD3B1F5001F69
:103410000CD349085FEA30004FEA3C0C04F1010488
:103420004FEA445212F5800F80F09A80BCF1004FB1
:1034300008BF5FEA500C50F1000041EB045141EA33
:10344000050130BD5FEA4C0C404141EB0101013CFC
:1034500028BFB1F5801FE9D291F0000F04BF0146EB
:103460000020B1FA81F308BF2033A3F10B03B3F1BD
:1034700020020CDA0C3208DD02F1140CC2F10C024D
:1034800001FA0CF021FA02F10CE002F11402D8BFAB
:10349000C2F1200C01FA02F120FA0CFCDCBF41EA77
:1034A0000C019040E41AA2BF01EB0451294330BD46
:1034B0006FEA04041F3C1CDA0C340EDC04F1140423
:1034C000C4F1200220FA04F001FA02F340EA0300FA
:1034D00021FA04F345EA030130BDC4F10C04C4F140
:1034E000200220FA02F001FA04F340EA0300294620
:1034F00030BD21FA04F0294630BD94F0000F83F46A
:10350000801306BF81F480110134013D4EE77FEA4C
:10351000645C18BF7FEA655C29D094EA050F08BF98
:1035200090EA020F05D054EA000C04BF1946104679
:1035300030BD91EA030F1EBF0021002030BD5FEABD
:10354000545C05D14000494128BF41F0004130BDE5
:1035500014F580043CBF01F5801130BD01F0004539
:1035600045F0FE4141F470014FF0000030BD7FEAAC
:10357000645C1ABF194610467FEA655C1CBF0B46A7
:10358000024650EA013406BF52EA033591EA030FBE
:1035900041F4002130BD00BF90F0000F04BF0021B6
:1035A000704730B54FF4806404F132044FF00005E9
:1035B0004FF0000150E700BF90F0000F04BF002162
:1035C000704730B54FF4806404F1320410F00045C8
:1035D00048BF40424FF000013EE700BF42004FEAC3
:1035E000E2014FEA31014FEA02701FBF12F07F4340
:1035F00093F07F4F81F06051704732F07F4208BFF7
:10360000704793F07F4F04BF41F40021704730B5FD
:103610004FF4607401F0004521F000411CE700BF49
:1036200050EA010208BF704730B54FF000050AE0CC
:1036300050EA010208BF704730B511F0004502D5CD
:10364000404261EB41014FF4806404F132045FEACF
:10365000915C3FF4D8AE4FF003025FEADC0C18BF78
:1036600003325FEADC0C18BF033202EBDC02C2F16A
:10367000200300FA03FC20FA02F001FA03FE40EAFC
:103680000E0021FA02F11444BDE600BF70B54FF000
:10369000FF0C4CF4E06C1CEA11541DBF1CEA1355DE
:1036A00094EA0C0F95EA0C0F00F0DEF82C4481EA46
:1036B000030621EA4C5123EA4C5350EA013518BF66
:1036C00052EA033541F4801143F4801338D0A0FB53
:1036D00002CE4FF00005E1FB02E506F00042E0FB00
:1036E00003E54FF00006E1FB03569CF0000F18BF06
:1036F0004EF0010EA4F1FF04B6F5007F64F54074AE
:1037000004D25FEA4E0E6D4146EB060642EAC62140
:1037100041EA55514FEAC52040EA5E504FEACE2EAD
:10372000B4F1FD0C88BFBCF5E06F1ED8BEF1004FB0
:1037300008BF5FEA500E50F1000041EB045170BD2C
:1037400006F0004646EA010140EA020081EA030170
:10375000B4EB5C04C2BFD4EB0C0541EA045170BD6C
:1037600041F480114FF0000E013C00F3AB8014F1E6
:10377000360FDEBF002001F0004170BDC4F100042F
:10378000203C35DA0C341BDC04F11404C4F12005B0
:1037900000FA05F320FA04F001FA05F240EA02000B
:1037A00001F0004221F0004110EBD37021FA04F641
:1037B00042EB06015EEA430E08BF20EAD37070BDFB
:1037C000C4F10C04C4F1200500FA04F320FA05F05A
:1037D00001FA04F240EA020001F0004110EBD3705C
:1037E00041F100015EEA430E08BF20EAD37070BDCC
:1037F000C4F1200500FA05F24EEA020E20FA04F3A5
:1038000001FA05F243EA020321FA04F001F0004153
:1038100021FA04F220EA020000EBD3705EEA430EC4
:1038200008BF20EAD37070BD94F0000F0FD101F0F3
:103830000046400041EB010111F4801F08BF013C2C
:10384000F7D041EA060195F0000F18BF704703F06A
:103850000046520043EB030313F4801F08BF013DF1
:10386000F7D043EA0603704794EA0C0F0CEA1355AD
:1038700018BF95EA0C0F0CD050EA410618BF52EA67
:103880004306D1D181EA030101F000414FF000006D
:1038900070BD50EA410606BF1046194652EA43067B
:1038A00019D094EA0C0F02D150EA013613D195EAEF
:1038B0000C0F05D152EA03361CBF104619460AD137
:1038C00081EA030101F0004141F0FE4141F4700141
:1038D0004FF0000070BD41F0FE4141F4780170BD31
:1038E00070B54FF0FF0C4CF4E06C1CEA11541DBF96
:1038F0001CEA135594EA0C0F95EA0C0F00F0A7F898
:10390000A4EB050481EA030E52EA03354FEA0131C4
:1039100000F088804FEA03334FF0805545EA1313D7
:1039200043EA12634FEA022245EA111545EA10659F
:103930004FEA00260EF000419D4208BF964244F136
:10394000FD0404F5407402D25B084FEA3202B61A55
:1039500065EB03055B084FEA32024FF480104FF429
:10396000002CB6EB020E75EB030E22BFB61A75469D
:1039700040EA0C005B084FEA3202B6EB020E75EB30
:10398000030E22BFB61A754640EA5C005B084FEA98
:103990003202B6EB020E75EB030E22BFB61A754665
:1039A00040EA9C005B084FEA3202B6EB020E75EB70
:1039B000030E22BFB61A754640EADC0055EA060E31
:1039C00018D04FEA051545EA16754FEA06164FEA74
:1039D000C30343EA52734FEAC2025FEA1C1CC0D120
:1039E00011F4801F0BD141EA00014FF000004FF0AD
:1039F000004CB6E711F4801F04BF01430020B4F16E
:103A0000FD0C88BFBCF5E06F3FF6AFAEB5EB030C25
:103A100004BFB6EB020C5FEA500C50F1000041EB22
:103A2000045170BD0EF0004E4EEA113114EB5C04EF
:103A3000C2BFD4EB0C0541EA045170BD41F48011C2
:103A40004FF0000E013C90E645EA060E8DE60CEACA
:103A5000135594EA0C0F08BF95EA0C0F3FF43BAFE7
:103A600094EA0C0F0AD150EA01347FF434AF95EA9E
:103A70000C0F7FF425AF104619462CE795EA0C0F82
:103A800006D152EA03353FF4FDAE1046194622E74F
:103A900050EA410618BF52EA43067FF4C5AE50EA29
:103AA00041047FF40DAF52EA43057FF4EBAE12E719
:103AB0004FEA410212F5001215D211D56FF4787356
:103AC000B3EB625212D94FEAC12343F0004343EAF9
:103AD000505311F0004F23FA02F018BF40427047D4
:103AE0004FF00000704750EA013005D111F000405E
:103AF00008BF6FF0004070474FF00000704700BFF4
:103B000080F0004002E000BF81F0004142001FBF92
:103B10005FEA410392EA030F7FEA226C7FEA236C9B
:103B20006AD04FEA1262D2EB1363C1BFD218414090
:103B300048404140B8BF5B42192B88BF704710F026
:103B4000004F40F4000020F07F4018BF404211F0C9
:103B5000004F41F4000121F07F4118BF494292EA31
:103B6000030F3FD0A2F1010241FA03FC10EB0C005D
:103B7000C3F1200301FA03F100F0004302D54942EA
:103B800060EB4000B0F5000F13D3B0F1807F06D397
:103B900040084FEA310102F10102FE2A51D2B1F18F
:103BA000004F40EBC25008BF20F0010040EA030084
:103BB0007047490040EB0000013A28BFB0F5000F04
:103BC000EDD2B0FA80FCACF1080CB2EB0C0200FABA
:103BD0000CF0AABF00EBC25052421843BCBFD04009
:103BE0001843704792F0000F81F4000106BF80F483
:103BF00000000132013BB5E74FEA41037FEA226C46
:103C000018BF7FEA236C21D092EA030F04D092F010
:103C1000000F08BF0846704790EA010F1CBF002044
:103C2000704712F07F4F04D1400028BF40F00040A1
:103C3000704712F100723CBF00F50000704700F0C1
:103C4000004343F0FE4040F4000070477FEA2262E8
:103C500016BF08467FEA23630146420206BF5FEAB9
:103C6000412390EA010F40F4800070474FF00003B9
:103C700004E000BF10F0004348BF40425FEA000C80
:103C800008BF704743F0964301464FF000001CE028
:103C900050EA010208BF70474FF000030AE000BF7E
:103CA00050EA010208BF704711F0004302D54042BC
:103CB00061EB41015FEA010C02BF8446014600202E
:103CC00043F0B64308BFA3F18053A3F50003BCFA49
:103CD0008CF2083AA3EBC25310DB01FA02FC6344F6
:103CE00000FA02FCC2F12002BCF1004F20FA02F2FD
:103CF00043EB020008BF20F00100704702F12002F0
:103D000001FA02FCC2F1200250EA4C0021FA02F250
:103D100043EB020008BF20EADC7070474FF0FF0C55
:103D20001CEAD0521EBF1CEAD15392EA0C0F93EA50
:103D30000C0F6FD01A4480EA010C400218BF5FEAF2
:103D400041211ED04FF0006343EA501043EA511165
:103D5000A0FB01310CF00040B1F5000F3EBF49005F
:103D600041EAD3715B0040EA010062F17F02FD2A63
:103D70001DD8B3F1004F40EBC25008BF20F0010046
:103D8000704790F0000F0CF0004C08BF49024CEA5D
:103D9000502040EA51207F3AC2BFD2F1FF0340EAEF
:103DA000C250704740F400004FF00003013A5DDC60
:103DB00012F1190FDCBF00F000407047C2F10002A1
:103DC000410021FA02F1C2F1200200FA02FC5FEA8E
:103DD000310040F1000053EA4C0308BF20EADC70D8
:103DE000704792F0000F00F0004C02BF400010F44A
:103DF000000F013AF9D040EA0C0093F0000F01F0F7
:103E0000004C02BF490011F4000F013BF9D041EA18
:103E10000C018FE70CEAD15392EA0C0F18BF93EA1A
:103E20000C0F0AD030F0004C18BF31F0004CD8D144
:103E300080EA010000F00040704790F0000F17BFCB
:103E400090F0004F084691F0000F91F0004F14D011
:103E500092EA0C0F01D142020FD193EA0C0F03D169
:103E60004B0218BF084608D180EA010000F000406C
:103E700040F0FE4040F40000704740F0FE4040F447
:103E8000400070474FF0FF0C1CEAD0521EBF1CEAE6
:103E9000D15392EA0C0F93EA0C0F69D0A2EB030204
:103EA00080EA010C49024FEA402037D04FF080539E
:103EB00043EA111143EA10130CF000408B4238BF63
:103EC0005B0042F17D024FF4000C8B4224BF5B1A71
:103ED00040EA0C00B3EB510F24BFA3EB510340EABF
:103EE0005C00B3EB910F24BFA3EB910340EA9C006D
:103EF000B3EBD10F24BFA3EBD10340EADC001B01DD
:103F000018BF5FEA1C1CE0D1FD2A3FF650AF8B4280
:103F100040EBC25008BF20F0010070470CF0004C8D
:103F20004CEA50207F32C2BFD2F1FF0340EAC250B8
:103F3000704740F400004FF00003013A37E792F079
:103F4000000F00F0004C02BF400010F4000F013AD7
:103F5000F9D040EA0C0093F0000F01F0004C02BFD2
:103F6000490011F4000F013BF9D041EA0C0195E73B
:103F70000CEAD15392EA0C0F08D142027FF47DAFD4
:103F800093EA0C0F7FF470AF084676E793EA0C0FC4
:103F900004D14B023FF44CAF08466EE730F0004CC2
:103FA00018BF31F0004CCAD130F000427FF45CAF52
:103FB00031F000437FF43CAF5FE700BF08B5074B2B
:103FC000044613B10021AFF30080054B1868836AE3
:103FD00003B198472046FCF74BFA00BF00000000F1
:103FE000E050000070B500260C4D0D4C641BA41071
:103FF000A64209D100F034FC00260A4D0A4C641B8D
:10400000A410A64205D170BD55F8043B984701366F
:10401000EEE755F8043B98470136F2E7200100200F
:10402000200100202001002024010020034602443A
:10403000934200D1704703F8011BF9E72DE9F743DC
:104040001D465D4B04461F680E46904627B1BB696E
:1040500013B9384600F0CEF9584B9C4267D17C68C2
:10406000B8F1020F06D0B8F1010F00F29F80002DC9
:10407000C0F29C80636EDB0705D4A389980502D447
:10408000A06D00F055FA2146384600F01FF9616B2B
:1040900041B104F14403994202D0384600F078FA65
:1040A000002363630023A3616360A389190603D51A
:1040B0003846216900F06CFAA389B8F1020F23F4A5
:1040C0004A6323F00303A3816CD001AB6A46214607
:1040D000384600F02FFAA3891843A081002D30D173
:1040E000009D284600F04CFA0646002855D1DDF820
:1040F0000090A9454AD14FF0FF350022A26004F19B
:104100004702226022610122B4F90C306261626EC2
:1041100043F00203D207A38105D413F4007F02D138
:10412000A06D00F006FA284603B0BDE8F083244BEA
:104130009C4201D1BC6893E7224B9C4208BFFC68BB
:104140008EE7002ECDD0BB6913B9384600F052F986
:10415000B8F1010F08BFA389C4E9046504BF43F0A7
:104160000103A381A289266012F008031CD0D307A3
:1041700041BF00236D42A360A56158BFA560656E75
:1041800015F0010515D112F4007FC8E7484600F08C
:10419000F7F906460028AED04D46A38943F08003C8
:1041A000A381D0E70025A8E7A360E8E74FF0FF353B
:1041B000B9E70025B7E700BFBC00002004510000AC
:1041C00024510000E45000008A89F8B50546100724
:1041D0000C4657D44B68002B04DC0B6C002B01DC25
:1041E0000020F8BDE66A002EFAD0002312F48052B7
:1041F0002F682B6032D0606DA3895A0705D563689C
:10420000C01A636B0BB1236CC01A00230246E66A26
:104210002846216AB047431CA38906D129681D2975
:104220002CD8294ACA40D60728D5002262602269C4
:10423000D904226004D5421C01D12B6803B9606502
:10424000616B2F600029CBD004F14403994202D066
:10425000284600F09DF900206063C2E7216A01232F
:104260002846B047411CC7D12B68002BC4D01D2B5A
:1042700001D0162B01D12F60B2E7A38943F0400390
:10428000A381AEE70F69002FAAD0930718BF0023C0
:104290000E6808BF4B69F61B0F608B60002E9FDD18
:1042A00033463A462846216AD4F828C0E047002819
:1042B00006DCA3894FF0FF3043F04003A38190E771
:1042C0000744361AEAE700BF0100402038B50B6901
:1042D00005460C4613B90025284638BD18B1836938
:1042E0000BB900F087F8144B9C421BD16C68B4F9F1
:1042F0000C30002BEFD0626ED00704D4990502D4A5
:10430000A06D00F015F928462146FFF75DFF636EAA
:104310000546DA07E0D4A3899B05DDD4A06D00F043
:1043200008F9D9E7054B9C4201D1AC68DFE7044BA3
:104330009C4208BFEC68DAE70451000024510000F9
:10434000E4500000002310B50446C0E90033C0E982
:104350000433836081814366C281836119460822E8
:104360005C30FFF763FE054B24626362044BA3627B
:10437000044BE362044B236310BD00BFF54600000D
:10438000174700004F47000073470000014900F045
:10439000AFB800BFCD420000682270B54D1E554336
:1043A0000E4605F1740100F03BF9044640B10021CE
:1043B000C0E900160C30A06005F16802FFF736FE78
:1043C000204670BD014800F0B3B800BF910D002039
:1043D000014800F0AEB800BF910D0020014800F088
:1043E000A7B800BF920D0020014800F0A2B800BF9E
:1043F000920D002010B50446FFF7F0FFA3691BB132
:10440000BDE81040FFF7F0BFC4E912332365134B3A
:10441000134A1B68A262A34208BF0123204608BFBB
:10442000A36100F01FF86060204600F01BF8A06058
:10443000204600F017F800220421E0606068FFF7D2
:1044400081FF01220921A068FFF77CFF02221221CF
:10445000E068FFF777FF0123A361D1E7E050000098
:104460008D430000F8B50746FFF7ACFF1E4B1E68F2
:10447000B36913B93046FFF7BDFF4836D6E90134BA
:10448000013B03D533680BB33668F7E7B4F90C503A
:10449000D5B9164B04F15800E360656600F047F8A3
:1044A000FFF796FF08222946C4E90155C4E90455DF
:1044B0002560A56104F15C00FFF7B8FDC4E90D5566
:1044C000C4E912552046F8BD6834D9E704213846BE
:1044D000FFF762FF044630600028D5D1FFF778FF70
:1044E0000C233B60EEE700BFE05000000100FFFF3F
:1044F0002DE9F84306468846002700F14804D4E930
:104500000195B9F1010905D52468002CF7D1384689
:10451000BDE8F883AB89012B07D9B5F90E3001331B
:1045200003D029463046C04707436835E9E770475E
:104530007047704770B50E46B1F90E101446002949
:104540001D4696B008DA0022B6F90C302A601A0629
:1045500010D44FF480630EE06A4600F031F9002871
:10456000F1DB019A02F47042A2F500535A425A411B
:104570002A60EEE740230020236016B070BD0000E3
:10458000024B0146186800F04BB800BFBC00002089
:1045900038B50546002940D051F8043C0C1F002BCB
:1045A000B8BFE41800F030F91C4A136833B96360EF
:1045B00014602846BDE8384000F02CB9A34208D961
:1045C000206821188B4201BF19685B6809182160B7
:1045D000EDE71A465B680BB1A342FAD9116850188F
:1045E000A0420BD120680144501883421160E0D1F1
:1045F00018685B68014411605360DAE702D90C2344
:104600002B60D6E7206821188B4201BF19685B68D0
:104610000918216063605460CBE738BD940D002019
:10462000F8B5CD1C25F0030508350C2D38BF0C2539
:10463000002D064601DBA94203D90C23336000207C
:10464000F8BD00F0E1F821490A6814469CB9204FF2
:104650003B6823B92146304600F03CF838602946D3
:10466000304600F037F8431C23D10C23304633602A
:1046700000F0D0F8E3E723685B1B17D40B2B03D9BA
:1046800023601C44256004E06368A2420CBF0B60F9
:104690005360304600F0BEF804F10B00231D20F0FB
:1046A0000700C21ACCD01B1AA350C9E7224664687F
:1046B000CCE7C41C24F00304A042E3D0211A304606
:1046C00000F008F80130DDD1CFE700BF940D0020E5
:1046D000980D002038B50023054D044608462B6090
:1046E00000F0B0F8431C02D12B6803B1236038BD41
:1046F0009C0D002010B50C46B1F90E1000F090F89A
:104700000028ABBF636DA3891B1823F48053ACBF93
:104710006365A38110BD2DE9F0411F468B890546D5
:10472000DB050C46164605D502230022B1F90E1012
:1047300000F058F8A389324623F48053A381284619
:104740003B46B4F90E10BDE8F04100F017B810B5C3
:104750000C46B1F90E1000F045F8431CA38915BFB3
:10476000606523F4805343F48053A38118BFA38171
:1047700010BDB1F90E1000F013B8000038B50446B2
:10478000084611460022054D2A601A46FBF790FEA6
:10479000431C02D12B6803B1236038BD9C0D00205F
:1047A00038B50023054D044608462B60FBF75EFE36
:1047B000431C02D12B6803B1236038BD9C0D00203F
:1047C00038B50023064D0446084611462B60FBF71A
:1047D00051FE431C02D12B6803B1236038BD00BFDA
:1047E0009C0D002038B50446084611460022054DB0
:1047F0002A601A46FBF744FE431C02D12B6803B122
:10480000236038BD9C0D00200148FFF791BE00BF1A
:10481000900D00200148FFF78CBE00BF900D0020D6
:1048200038B50446084611460022054D2A601A464E
:10483000FBF728FE431C02D12B6803B1236038BD6F
:104840009C0D0020044A05491368002B08BF0B4645
:104850001844106018467047A00D0020A80D0020D5
:10486000F8B500BFF8BC08BC9E467047F8B500BF5D
:10487000F8BC08BC9E467047633A5C7573657273FA
:104880005C73746566615C73696D706C696369748F
:104890007973747564696F5C73646B735C6765636B
:1048A0006B6F5F73646B5C706C6174666F726D5C70
:1048B000656D6C69625C696E635C656D5F6770698C
:1048C0006F2E6800040000000200000004000000D9
:1048D00003000000010105070703040203020406A8
:1048E00005060D0E0E0E0D0D0D0D0E0E0E0E0D0D00
:1048F00001010507070304020302040605060F1061
:1049000010100F0F0F0F101010100F0F01010507DF
:104910000703040203020406050611121212111104
:1049200011111212121211110101050707030402DD
:10493000030204060506131C1C1C131313131C1C72
:104940001C1C1313000105070602030103020406E1
:1049500004051D1E1E1E1D1D1D1D1E1E1E1E1D1DB1
:1049600000010507060203010302040604051F20D7
:1049700020201F1F1F1F202020201F1F01010507AF
:104980000703040203020406050621222222212134
:1049900021212222222221210705020103060423CC
:1049A00023232323232307050201030604242424AD
:1049B0002424242407050201030604252525252592
:1049C0002525070502010306042626262626262677
:1049D0000001070206272727272700000000000004
:1049E0000000131211100F0E0D0C00000000212505
:1049F000242601010304040203020D0E0D0D0E0D09
:104A00000E0E01010304040203020F100F0F100F1A
:104A100010100101030404020302111211111211FA
:104A200012120101030404020302131C13131C13CA
:104A30001C1C00010203040103021D1E1D1D1E1D7E
:104A40001E1E00010203040103021F201F1F201F5E
:104A5000202001010304040203022122212122213A
:104A6000222205070704040605060E0E0D0D0E0E84
:104A70000D0D050707040406050610100F0F101092
:104A80000F0F050707040406050612121111121272
:104A9000111105070704040605061C1C13131C1C32
:104AA000131305070603040604051E1E1D1D1E1E06
:104AB0001D1D050706030406040520201F1F2020D6
:104AC0001F1F0507070404060506222221212222B2
:104AD000212100003F0006005B004F0066006D00D2
:104AE0007D0007007F006F0077007C0039005E00CA
:104AF0007900710040000000010000000300400048
:104B00000C00000000000000000000000101000097
:104B10000000000060670100000000000608205F40
:104B20000000000000000000002F0000000007004F
:104B3000070000147F147F1400242A7F2A12002308
:104B40001308646200364955225000000503000036
:104B500000001C224100000041221C000014083EFD
:104B600008140008083E0808000000A060000008C3
:104B70000808080800006060000000201008040217
:104B8000003E5149453E0000427F400000426151D5
:104B90004946002141454B31001814127F1000276F
:104BA00045454539003C4A49493000017109050332
:104BB00000364949493600064949291E0000363663
:104BC00000000000563600000008142241000014C6
:104BD00014141414000041221408000201510906A3
:104BE00000324959513E007C1211127C007F494924
:104BF0004936003E41414122007F4141221C007F55
:104C000049494941007F09090901003E4149497A62
:104C1000007F0808087F0000417F410000204041DC
:104C20003F01007F08142241007F40404040007F48
:104C3000020C027F007F0408107F003E4141413E8C
:104C4000007F09090906003E4151215E007F0919D4
:104C500029460046494949310001017F0101003FD1
:104C60004040403F001F2040201F003F4038403F51
:104C700000631408146300070870080700615149B5
:104C8000454300007F414100AA55AA55AA5500009E
:104C900041417F00000402010204004040404040C6
:104CA000000003050000002054545478007F48445D
:104CB000443800384444442000384444487F003895
:104CC0005454541800087E0901020018A4A4A47CBE
:104CD000007F080404780000447D40000040808488
:104CE0007D00007F102844000000417F4000007CD0
:104CF00004180478007C08040478003844444438DC
:104D000000FC242424180018242418FC007C080427
:104D1000040800485454542000043F444020003C00
:104D20004040207C001C2040201C003C4030403C87
:104D3000004428102844001CA0A0A07C0044645417
:104D40004C440000107C8200000000FF00000000C6
:104D5000827C10000000060909060000633A5C75B9
:104D6000736572735C73746566615C73696D706C96
:104D7000696369747973747564696F5C73646B7368
:104D80005C6765636B6F5F73646B5C706C617466AA
:104D90006F726D5C656D6C69625C696E635C656D9C
:104DA0005F74696D65722E680000000005000000E8
:104DB000000000008025000000000000433A2F554D
:104DC000736572732F73746566612F53696D706CB0
:104DD000696369747953747564696F2F53444B73B5
:104DE0002F6765636B6F5F73646B2F706C617466A4
:104DF0006F726D2F656D6C69622F7372632F656DB5
:104E00005F6164632E630000433A2F5573657273CC
:104E10002F73746566612F53696D706C6963697473
:104E20007953747564696F2F53444B732F676563AF
:104E30006B6F5F73646B2F706C6174666F726D2F34
:104E4000656D6C69622F7372632F656D5F636D753D
:104E50002E630000633A5C75736572735C737465EE
:104E600066615C73696D706C69636974797374757C
:104E700064696F5C73646B735C6765636B6F5F73AE
:104E8000646B5C706C6174666F726D5C656D6C698F
:104E9000625C696E635C656D5F636D752E680000B2
:104EA00003020600433A2F55736572732F737465BE
:104EB00066612F53696D706C696369747953747599
:104EC00064696F2F53444B732F6765636B6F5F7318
:104ED000646B2F706C6174666F726D2F656D6C6999
:104EE000622F7372632F656D5F6770696F2E630049
:104EF000433A2F55736572732F73746566612F5330
:104F0000696D706C696369747953747564696F2F26
:104F100053444B732F6765636B6F5F73646B2F70C4
:104F20006C6174666F726D2F656D6C69622F737240
:104F3000632F656D5F6932632E6300004016400089
:104F4000C0D8A7008050740180841E00405489009E
:104F5000002D310108091108433A2F55736572730A
:104F60002F73746566612F53696D706C6963697422
:104F70007953747564696F2F53444B732F6765635E
:104F80006B6F5F73646B2F706C6174666F726D2FE3
:104F9000656D6C69622F7372632F656D5F6C6364FE
:104FA0002E630000633A5C75736572735C7374659D
:104FB00066615C73696D706C69636974797374752B
:104FC00064696F5C73646B735C6765636B6F5F735D
:104FD000646B5C706C6174666F726D5C656D6C693E
:104FE000625C696E635C656D5F6275732E6800005C
:104FF000433A2F55736572732F73746566612F532F
:10500000696D706C696369747953747564696F2F25
:1050100053444B732F6765636B6F5F73646B2F70C3
:105020006C6174666F726D2F656D6C69622F73723F
:10503000632F656D5F6C65756172742E630000008F
:10504000433A2F55736572732F73746566612F53DE
:10505000696D706C696369747953747564696F2FD5
:1050600053444B732F6765636B6F5F73646B2F7073
:105070006C6174666F726D2F656D6C69622F7372EF
:10508000632F656D5F73797374656D2E6300000027
:10509000433A2F55736572732F73746566612F538E
:1050A000696D706C696369747953747564696F2F85
:1050B00053444B732F6765636B6F5F73646B2F7023
:1050C0006C6174666F726D2F656D6C69622F73729F
:1050D000632F656D5F74696D65722E63000000005B
:1050E000C0000020000000000000000000000000E0
:1050F00000000000000000000000000000000000B0
:10510000000000000000000000000000000000009F
:10511000000000000000000000000000000000008F
:10512000000000000000000000000000000000007F
:10513000000000000000000000000000000000006F
:08514000000000000000000067
:08514800D4AFFF7F010000005D
:10515000809FD500006CDC0200800000030000008E
:105160000000000003000000010000000300000038
:105170000200000003000000030000000300000024
:105180000400000003000000050000000300000010
:1051900006000000030000000700000003000000FC
:1051A00000000000030000000000000003000000F9
:1051B00000000000030000000000000002000000EA
:1051C00000000000020000000000000002000000DB
:1051D00000000000020000000000000002000000CB
:1051E00000000000020000000000000002000000BB
:1051F00000000000020000000000000002000000AB
:10520000040000000200000005000000C0000020B3
:10521000000000000451000024510000E450000090
:10522000000000000000000000000000000000007E
:10523000000000000000000000000000000000006E
:10524000000000000000000000000000000000005E
:10525000000000000000000000000000000000004E
:10526000000000000000000000000000000000003E
:0852700001010000DD00000057
:040000030000030DE9
:00000001FF
